{
  "address": "0xa0fE1D087B9f1E38c62e9eA00C3D4EEc30C11675",
  "abi": [
    {
      "inputs": [
        {
          "internalType": "string",
          "name": "_tld",
          "type": "string"
        }
      ],
      "stateMutability": "payable",
      "type": "constructor"
    },
    {
      "inputs": [],
      "name": "AlreadyRegistered",
      "type": "error"
    },
    {
      "inputs": [
        {
          "internalType": "string",
          "name": "name",
          "type": "string"
        }
      ],
      "name": "InvalidName",
      "type": "error"
    },
    {
      "inputs": [],
      "name": "Unauthorized",
      "type": "error"
    },
    {
      "anonymous": false,
      "inputs": [
        {
          "indexed": true,
          "internalType": "address",
          "name": "owner",
          "type": "address"
        },
        {
          "indexed": true,
          "internalType": "address",
          "name": "approved",
          "type": "address"
        },
        {
          "indexed": true,
          "internalType": "uint256",
          "name": "tokenId",
          "type": "uint256"
        }
      ],
      "name": "Approval",
      "type": "event"
    },
    {
      "anonymous": false,
      "inputs": [
        {
          "indexed": true,
          "internalType": "address",
          "name": "owner",
          "type": "address"
        },
        {
          "indexed": true,
          "internalType": "address",
          "name": "operator",
          "type": "address"
        },
        {
          "indexed": false,
          "internalType": "bool",
          "name": "approved",
          "type": "bool"
        }
      ],
      "name": "ApprovalForAll",
      "type": "event"
    },
    {
      "anonymous": false,
      "inputs": [
        {
          "indexed": true,
          "internalType": "address",
          "name": "from",
          "type": "address"
        },
        {
          "indexed": true,
          "internalType": "address",
          "name": "to",
          "type": "address"
        },
        {
          "indexed": true,
          "internalType": "uint256",
          "name": "tokenId",
          "type": "uint256"
        }
      ],
      "name": "Transfer",
      "type": "event"
    },
    {
      "inputs": [
        {
          "internalType": "address",
          "name": "to",
          "type": "address"
        },
        {
          "internalType": "uint256",
          "name": "tokenId",
          "type": "uint256"
        }
      ],
      "name": "approve",
      "outputs": [],
      "stateMutability": "nonpayable",
      "type": "function"
    },
    {
      "inputs": [
        {
          "internalType": "address",
          "name": "owner",
          "type": "address"
        }
      ],
      "name": "balanceOf",
      "outputs": [
        {
          "internalType": "uint256",
          "name": "",
          "type": "uint256"
        }
      ],
      "stateMutability": "view",
      "type": "function"
    },
    {
      "inputs": [],
      "name": "getAllDomainNames",
      "outputs": [
        {
          "internalType": "string[]",
          "name": "",
          "type": "string[]"
        }
      ],
      "stateMutability": "view",
      "type": "function"
    },
    {
      "inputs": [
        {
          "internalType": "uint256",
          "name": "tokenId",
          "type": "uint256"
        }
      ],
      "name": "getApproved",
      "outputs": [
        {
          "internalType": "address",
          "name": "",
          "type": "address"
        }
      ],
      "stateMutability": "view",
      "type": "function"
    },
    {
      "inputs": [
        {
          "internalType": "string",
          "name": "domain",
          "type": "string"
        }
      ],
      "name": "getDomainOwner",
      "outputs": [
        {
          "internalType": "address",
          "name": "",
          "type": "address"
        }
      ],
      "stateMutability": "view",
      "type": "function"
    },
    {
      "inputs": [
        {
          "internalType": "string",
          "name": "recordType",
          "type": "string"
        },
        {
          "internalType": "string",
          "name": "key",
          "type": "string"
        }
      ],
      "name": "getRecordHashKey",
      "outputs": [
        {
          "internalType": "bytes",
          "name": "",
          "type": "bytes"
        }
      ],
      "stateMutability": "pure",
      "type": "function"
    },
    {
      "inputs": [
        {
          "internalType": "string",
          "name": "domain",
          "type": "string"
        },
        {
          "internalType": "string",
          "name": "recordType",
          "type": "string"
        },
        {
          "internalType": "string",
          "name": "key",
          "type": "string"
        }
      ],
      "name": "getRecordValue",
      "outputs": [
        {
          "internalType": "bytes",
          "name": "",
          "type": "bytes"
        }
      ],
      "stateMutability": "view",
      "type": "function"
    },
    {
      "inputs": [
        {
          "internalType": "string",
          "name": "domainName",
          "type": "string"
        }
      ],
      "name": "getTokenIdForDomainName",
      "outputs": [
        {
          "internalType": "uint256",
          "name": "",
          "type": "uint256"
        }
      ],
      "stateMutability": "view",
      "type": "function"
    },
    {
      "inputs": [
        {
          "internalType": "address",
          "name": "owner",
          "type": "address"
        },
        {
          "internalType": "address",
          "name": "operator",
          "type": "address"
        }
      ],
      "name": "isApprovedForAll",
      "outputs": [
        {
          "internalType": "bool",
          "name": "",
          "type": "bool"
        }
      ],
      "stateMutability": "view",
      "type": "function"
    },
    {
      "inputs": [
        {
          "internalType": "string",
          "name": "domainName",
          "type": "string"
        }
      ],
      "name": "isValidDomainName",
      "outputs": [
        {
          "internalType": "bool",
          "name": "",
          "type": "bool"
        }
      ],
      "stateMutability": "pure",
      "type": "function"
    },
    {
      "inputs": [],
      "name": "name",
      "outputs": [
        {
          "internalType": "string",
          "name": "",
          "type": "string"
        }
      ],
      "stateMutability": "view",
      "type": "function"
    },
    {
      "inputs": [
        {
          "internalType": "uint256",
          "name": "",
          "type": "uint256"
        }
      ],
      "name": "names",
      "outputs": [
        {
          "internalType": "string",
          "name": "",
          "type": "string"
        }
      ],
      "stateMutability": "view",
      "type": "function"
    },
    {
      "inputs": [
        {
          "internalType": "string",
          "name": "",
          "type": "string"
        }
      ],
      "name": "namesToIds",
      "outputs": [
        {
          "internalType": "uint256",
          "name": "",
          "type": "uint256"
        }
      ],
      "stateMutability": "view",
      "type": "function"
    },
    {
      "inputs": [],
      "name": "owner",
      "outputs": [
        {
          "internalType": "address payable",
          "name": "",
          "type": "address"
        }
      ],
      "stateMutability": "view",
      "type": "function"
    },
    {
      "inputs": [
        {
          "internalType": "uint256",
          "name": "tokenId",
          "type": "uint256"
        }
      ],
      "name": "ownerOf",
      "outputs": [
        {
          "internalType": "address",
          "name": "",
          "type": "address"
        }
      ],
      "stateMutability": "view",
      "type": "function"
    },
    {
      "inputs": [
        {
          "internalType": "string",
          "name": "domainName",
          "type": "string"
        }
      ],
      "name": "priceToRegisterDomain",
      "outputs": [
        {
          "internalType": "uint256",
          "name": "",
          "type": "uint256"
        }
      ],
      "stateMutability": "pure",
      "type": "function"
    },
    {
      "inputs": [
        {
          "internalType": "string",
          "name": "",
          "type": "string"
        },
        {
          "internalType": "bytes",
          "name": "",
          "type": "bytes"
        }
      ],
      "name": "records",
      "outputs": [
        {
          "internalType": "string",
          "name": "recordType",
          "type": "string"
        },
        {
          "internalType": "string",
          "name": "key",
          "type": "string"
        },
        {
          "internalType": "bytes",
          "name": "value",
          "type": "bytes"
        }
      ],
      "stateMutability": "view",
      "type": "function"
    },
    {
      "inputs": [
        {
          "internalType": "string",
          "name": "domainName",
          "type": "string"
        }
      ],
      "name": "register",
      "outputs": [],
      "stateMutability": "payable",
      "type": "function"
    },
    {
      "inputs": [
        {
          "internalType": "address",
          "name": "from",
          "type": "address"
        },
        {
          "internalType": "address",
          "name": "to",
          "type": "address"
        },
        {
          "internalType": "uint256",
          "name": "tokenId",
          "type": "uint256"
        }
      ],
      "name": "safeTransferFrom",
      "outputs": [],
      "stateMutability": "nonpayable",
      "type": "function"
    },
    {
      "inputs": [
        {
          "internalType": "address",
          "name": "from",
          "type": "address"
        },
        {
          "internalType": "address",
          "name": "to",
          "type": "address"
        },
        {
          "internalType": "uint256",
          "name": "tokenId",
          "type": "uint256"
        },
        {
          "internalType": "bytes",
          "name": "_data",
          "type": "bytes"
        }
      ],
      "name": "safeTransferFrom",
      "outputs": [],
      "stateMutability": "nonpayable",
      "type": "function"
    },
    {
      "inputs": [
        {
          "internalType": "address",
          "name": "operator",
          "type": "address"
        },
        {
          "internalType": "bool",
          "name": "approved",
          "type": "bool"
        }
      ],
      "name": "setApprovalForAll",
      "outputs": [],
      "stateMutability": "nonpayable",
      "type": "function"
    },
    {
      "inputs": [
        {
          "internalType": "string",
          "name": "domain",
          "type": "string"
        },
        {
          "internalType": "string",
          "name": "recordType",
          "type": "string"
        },
        {
          "internalType": "string",
          "name": "key",
          "type": "string"
        },
        {
          "internalType": "bytes",
          "name": "value",
          "type": "bytes"
        }
      ],
      "name": "setRecord",
      "outputs": [],
      "stateMutability": "nonpayable",
      "type": "function"
    },
    {
      "inputs": [
        {
          "internalType": "bytes4",
          "name": "interfaceId",
          "type": "bytes4"
        }
      ],
      "name": "supportsInterface",
      "outputs": [
        {
          "internalType": "bool",
          "name": "",
          "type": "bool"
        }
      ],
      "stateMutability": "view",
      "type": "function"
    },
    {
      "inputs": [],
      "name": "symbol",
      "outputs": [
        {
          "internalType": "string",
          "name": "",
          "type": "string"
        }
      ],
      "stateMutability": "view",
      "type": "function"
    },
    {
      "inputs": [],
      "name": "tld",
      "outputs": [
        {
          "internalType": "string",
          "name": "",
          "type": "string"
        }
      ],
      "stateMutability": "view",
      "type": "function"
    },
    {
      "inputs": [
        {
          "internalType": "uint256",
          "name": "tokenId",
          "type": "uint256"
        }
      ],
      "name": "tokenURI",
      "outputs": [
        {
          "internalType": "string",
          "name": "",
          "type": "string"
        }
      ],
      "stateMutability": "view",
      "type": "function"
    },
    {
      "inputs": [
        {
          "internalType": "string",
          "name": "domainName",
          "type": "string"
        },
        {
          "internalType": "address",
          "name": "transferTo",
          "type": "address"
        }
      ],
      "name": "transferDomain",
      "outputs": [],
      "stateMutability": "nonpayable",
      "type": "function"
    },
    {
      "inputs": [
        {
          "internalType": "address",
          "name": "from",
          "type": "address"
        },
        {
          "internalType": "address",
          "name": "to",
          "type": "address"
        },
        {
          "internalType": "uint256",
          "name": "tokenId",
          "type": "uint256"
        }
      ],
      "name": "transferFrom",
      "outputs": [],
      "stateMutability": "nonpayable",
      "type": "function"
    },
    {
      "inputs": [],
      "name": "withdraw",
      "outputs": [],
      "stateMutability": "nonpayable",
      "type": "function"
    }
  ],
  "transactionHash": "0x700bf7aa90b75720318b1950260fead5edcdb3c426f48d1bf8ef31ad893dddbe",
  "args": [
    "poly"
  ],
  "numDeployments": 1,
  "solcInputHash": "4948ab334fb4322056c2f19104cc3d09",
  "bytecode": "0x6080604052604051806108a0016040528061086b815260200162005dc361086b9139600c9080519060200190620000389291906200046e565b506040518060400160405280600d81526020017f3c2f746578743e3c2f7376673e00000000000000000000000000000000000000815250600d9080519060200190620000869291906200046e565b506040516200662e3803806200662e8339818101604052810190620000ac9190620006bb565b6040518060400160405280601481526020017f506f6c79676f6e204e616d6520536572766963650000000000000000000000008152506040518060400160405280600381526020017f504e5300000000000000000000000000000000000000000000000000000000008152508160009080519060200190620001309291906200046e565b508060019080519060200190620001499291906200046e565b50505033600b60006101000a81548173ffffffffffffffffffffffffffffffffffffffff021916908373ffffffffffffffffffffffffffffffffffffffff16021790555080600a9080519060200190620001a59291906200046e565b50620002846040518060400160405280601881526020017f2573206e616d652073657276696365206465706c6f7965640000000000000000815250600a8054620001ef906200073b565b80601f01602080910402602001604051908101604052809291908181526020018280546200021d906200073b565b80156200026e5780601f1062000242576101008083540402835291602001916200026e565b820191906000526020600020905b8154815290600101906020018083116200025057829003601f168201915b5050505050620002f960201b62001e6d1760201c565b620002f26040518060400160405280600981526020017f4f776e65723a2025730000000000000000000000000000000000000000000000815250600b60009054906101000a900473ffffffffffffffffffffffffffffffffffffffff166200039f60201b62001f091760201c565b5062000882565b6200039b828260405160240162000312929190620007ce565b6040516020818303038152906040527f4b5c4277000000000000000000000000000000000000000000000000000000007bffffffffffffffffffffffffffffffffffffffffffffffffffffffff19166020820180517bffffffffffffffffffffffffffffffffffffffffffffffffffffffff83818316178352505050506200044560201b60201c565b5050565b620004418282604051602401620003b89291906200084e565b6040516020818303038152906040527f319af333000000000000000000000000000000000000000000000000000000007bffffffffffffffffffffffffffffffffffffffffffffffffffffffff19166020820180517bffffffffffffffffffffffffffffffffffffffffffffffffffffffff83818316178352505050506200044560201b60201c565b5050565b60008151905060006a636f6e736f6c652e6c6f679050602083016000808483855afa5050505050565b8280546200047c906200073b565b90600052602060002090601f016020900481019282620004a05760008555620004ec565b82601f10620004bb57805160ff1916838001178555620004ec565b82800160010185558215620004ec579182015b82811115620004eb578251825591602001919060010190620004ce565b5b509050620004fb9190620004ff565b5090565b5b808211156200051a57600081600090555060010162000500565b5090565b6000604051905090565b600080fd5b600080fd5b600080fd5b600080fd5b6000601f19601f8301169050919050565b7f4e487b7100000000000000000000000000000000000000000000000000000000600052604160045260246000fd5b62000587826200053c565b810181811067ffffffffffffffff82111715620005a957620005a86200054d565b5b80604052505050565b6000620005be6200051e565b9050620005cc82826200057c565b919050565b600067ffffffffffffffff821115620005ef57620005ee6200054d565b5b620005fa826200053c565b9050602081019050919050565b60005b83811015620006275780820151818401526020810190506200060a565b8381111562000637576000848401525b50505050565b6000620006546200064e84620005d1565b620005b2565b90508281526020810184848401111562000673576200067262000537565b5b6200068084828562000607565b509392505050565b600082601f830112620006a0576200069f62000532565b5b8151620006b28482602086016200063d565b91505092915050565b600060208284031215620006d457620006d362000528565b5b600082015167ffffffffffffffff811115620006f557620006f46200052d565b5b620007038482850162000688565b91505092915050565b7f4e487b7100000000000000000000000000000000000000000000000000000000600052602260045260246000fd5b600060028204905060018216806200075457607f821691505b602082108114156200076b576200076a6200070c565b5b50919050565b600081519050919050565b600082825260208201905092915050565b60006200079a8262000771565b620007a681856200077c565b9350620007b881856020860162000607565b620007c3816200053c565b840191505092915050565b60006040820190508181036000830152620007ea81856200078d565b905081810360208301526200080081846200078d565b90509392505050565b600073ffffffffffffffffffffffffffffffffffffffff82169050919050565b6000620008368262000809565b9050919050565b620008488162000829565b82525050565b600060408201905081810360008301526200086a81856200078d565b90506200087b60208301846200083d565b9392505050565b61553180620008926000396000f3fe6080604052600436106101c25760003560e01c806365a3ff81116100f7578063a43ca14b11610095578063c87b56dd11610064578063c87b56dd146106b2578063d3c594a5146106ef578063e985e9c51461072c578063f2c298be14610769576101c2565b8063a43ca14b146105d0578063ab2219441461060f578063b250fdbf1461064c578063b88d4fde14610689576101c2565b806395d89b41116100d157806395d89b41146105165780639886743714610541578063a22cb4651461056a578063a2733c0914610593576101c2565b806365a3ff811461048357806370a08231146104ae5780638da5cb5b146104eb576101c2565b806325970115116101645780633eb7331b1161013e5780633eb7331b146103a357806342842e0e146103e05780634622ab03146104095780636352211e14610446576101c2565b806325970115146103245780632d551432146103615780633ccfd60b1461038c576101c2565b8063095ea7b3116101a0578063095ea7b31461026c57806319fbe87e1461029557806321a33ba8146102be57806323b872dd146102fb576101c2565b806301ffc9a7146101c757806306fdde0314610204578063081812fc1461022f575b600080fd5b3480156101d357600080fd5b506101ee60048036038101906101e9919061355e565b610785565b6040516101fb91906135a6565b60405180910390f35b34801561021057600080fd5b50610219610867565b604051610226919061365a565b60405180910390f35b34801561023b57600080fd5b50610256600480360381019061025191906136b2565b6108f9565b6040516102639190613720565b60405180910390f35b34801561027857600080fd5b50610293600480360381019061028e9190613767565b61097e565b005b3480156102a157600080fd5b506102bc60048036038101906102b791906138dc565b610a96565b005b3480156102ca57600080fd5b506102e560048036038101906102e09190613998565b610b13565b6040516102f291906135a6565b60405180910390f35b34801561030757600080fd5b50610322600480360381019061031d91906139e5565b610b80565b005b34801561033057600080fd5b5061034b60048036038101906103469190613a38565b610be0565b6040516103589190613720565b60405180910390f35b34801561036d57600080fd5b50610376610c86565b604051610383919061365a565b60405180910390f35b34801561039857600080fd5b506103a1610d14565b005b3480156103af57600080fd5b506103ca60048036038101906103c59190613a38565b610e50565b6040516103d79190613a90565b60405180910390f35b3480156103ec57600080fd5b50610407600480360381019061040291906139e5565b610e7e565b005b34801561041557600080fd5b50610430600480360381019061042b91906136b2565b610e9e565b60405161043d919061365a565b60405180910390f35b34801561045257600080fd5b5061046d600480360381019061046891906136b2565b610f3e565b60405161047a9190613720565b60405180910390f35b34801561048f57600080fd5b50610498610ff0565b6040516104a59190613bb7565b60405180910390f35b3480156104ba57600080fd5b506104d560048036038101906104d09190613bd9565b6111ce565b6040516104e29190613a90565b60405180910390f35b3480156104f757600080fd5b50610500611286565b60405161050d9190613c27565b60405180910390f35b34801561052257600080fd5b5061052b6112ac565b604051610538919061365a565b60405180910390f35b34801561054d57600080fd5b5061056860048036038101906105639190613ce3565b61133e565b005b34801561057657600080fd5b50610591600480360381019061058c9190613de6565b6113bf565b005b34801561059f57600080fd5b506105ba60048036038101906105b59190613a38565b6113d5565b6040516105c79190613a90565b60405180910390f35b3480156105dc57600080fd5b506105f760048036038101906105f29190613e26565b6113fd565b60405161060693929190613ef3565b60405180910390f35b34801561061b57600080fd5b5061063660048036038101906106319190613f3f565b6115f8565b6040516106439190613fb7565b60405180910390f35b34801561065857600080fd5b50610673600480360381019061066e9190613fd9565b6116b6565b6040516106809190613fb7565b60405180910390f35b34801561069557600080fd5b506106b060048036038101906106ab9190614080565b611790565b005b3480156106be57600080fd5b506106d960048036038101906106d491906136b2565b6117f2565b6040516106e6919061365a565b60405180910390f35b3480156106fb57600080fd5b5061071660048036038101906107119190613998565b611a33565b6040516107239190613a90565b60405180910390f35b34801561073857600080fd5b50610753600480360381019061074e9190614103565b611ad9565b60405161076091906135a6565b60405180910390f35b610783600480360381019061077e9190613998565b611b6d565b005b60007f80ac58cd000000000000000000000000000000000000000000000000000000007bffffffffffffffffffffffffffffffffffffffffffffffffffffffff1916827bffffffffffffffffffffffffffffffffffffffffffffffffffffffff1916148061085057507f5b5e139f000000000000000000000000000000000000000000000000000000007bffffffffffffffffffffffffffffffffffffffffffffffffffffffff1916827bffffffffffffffffffffffffffffffffffffffffffffffffffffffff1916145b80610860575061085f82611fa5565b5b9050919050565b60606000805461087690614172565b80601f01602080910402602001604051908101604052809291908181526020018280546108a290614172565b80156108ef5780601f106108c4576101008083540402835291602001916108ef565b820191906000526020600020905b8154815290600101906020018083116108d257829003601f168201915b5050505050905090565b60006109048261200f565b610943576040517f08c379a000000000000000000000000000000000000000000000000000000000815260040161093a90614216565b60405180910390fd5b6004600083815260200190815260200160002060009054906101000a900473ffffffffffffffffffffffffffffffffffffffff169050919050565b600061098982610f3e565b90508073ffffffffffffffffffffffffffffffffffffffff168373ffffffffffffffffffffffffffffffffffffffff1614156109fa576040517f08c379a00000000000000000000000000000000000000000000000000000000081526004016109f1906142a8565b60405180910390fd5b8073ffffffffffffffffffffffffffffffffffffffff16610a1961207b565b73ffffffffffffffffffffffffffffffffffffffff161480610a485750610a4781610a4261207b565b611ad9565b5b610a87576040517f08c379a0000000000000000000000000000000000000000000000000000000008152600401610a7e9061433a565b60405180910390fd5b610a918383612083565b505050565b813373ffffffffffffffffffffffffffffffffffffffff16610ab782610be0565b73ffffffffffffffffffffffffffffffffffffffff1614610b04576040517f82b4290000000000000000000000000000000000000000000000000000000000815260040160405180910390fd5b610b0e838361213c565b505050565b600080610b6384848080601f016020809104026020016040519081016040528093929190818152602001838380828437600081840152601f19601f82011690508083019250505050505050612163565b905060038110158015610b77575060408111155b91505092915050565b610b91610b8b61207b565b82612318565b610bd0576040517f08c379a0000000000000000000000000000000000000000000000000000000008152600401610bc7906143cc565b60405180910390fd5b610bdb8383836123f6565b505050565b600080610c58836040518060400160405280600781526020017f61646472657373000000000000000000000000000000000000000000000000008152506040518060400160405280600581526020017f6f776e65720000000000000000000000000000000000000000000000000000008152506116b6565b9050600081511415610c6e576000915050610c81565b6000610c798261265d565b905080925050505b919050565b600a8054610c9390614172565b80601f0160208091040260200160405190810160405280929190818152602001828054610cbf90614172565b8015610d0c5780601f10610ce157610100808354040283529160200191610d0c565b820191906000526020600020905b815481529060010190602001808311610cef57829003601f168201915b505050505081565b600b60009054906101000a900473ffffffffffffffffffffffffffffffffffffffff1673ffffffffffffffffffffffffffffffffffffffff163373ffffffffffffffffffffffffffffffffffffffff1614610d9b576040517f82b4290000000000000000000000000000000000000000000000000000000000815260040160405180910390fd5b600047905060003373ffffffffffffffffffffffffffffffffffffffff1682604051610dc69061441d565b60006040518083038185875af1925050503d8060008114610e03576040519150601f19603f3d011682016040523d82523d6000602084013e610e08565b606091505b5050905080610e4c576040517f08c379a0000000000000000000000000000000000000000000000000000000008152600401610e439061447e565b60405180910390fd5b5050565b6008818051602081018201805184825260208301602085012081835280955050505050506000915090505481565b610e9983838360405180602001604052806000815250611790565b505050565b60076020528060005260406000206000915090508054610ebd90614172565b80601f0160208091040260200160405190810160405280929190818152602001828054610ee990614172565b8015610f365780601f10610f0b57610100808354040283529160200191610f36565b820191906000526020600020905b815481529060010190602001808311610f1957829003601f168201915b505050505081565b6000806002600084815260200190815260200160002060009054906101000a900473ffffffffffffffffffffffffffffffffffffffff169050600073ffffffffffffffffffffffffffffffffffffffff168173ffffffffffffffffffffffffffffffffffffffff161415610fe7576040517f08c379a0000000000000000000000000000000000000000000000000000000008152600401610fde90614510565b60405180910390fd5b80915050919050565b60606110306040518060400160405280601f81526020017f47657474696e6720616c6c206e616d65732066726f6d20636f6e747261637400815250612671565b600061103c600961270a565b67ffffffffffffffff811115611055576110546137b1565b5b60405190808252806020026020018201604052801561108857816020015b60608152602001906001900390816110735790505b50905060005b611098600961270a565b8110156111c6576007600082815260200190815260200160002080546110bd90614172565b80601f01602080910402602001604051908101604052809291908181526020018280546110e990614172565b80156111365780601f1061110b57610100808354040283529160200191611136565b820191906000526020600020905b81548152906001019060200180831161111957829003601f168201915b505050505082828151811061114e5761114d614530565b5b60200260200101819052506111b36040518060400160405280601981526020017f4e616d6520666f7220746f6b656e494420256420697320257300000000000000815250828484815181106111a6576111a5614530565b5b6020026020010151612718565b80806111be9061458e565b91505061108e565b508091505090565b60008073ffffffffffffffffffffffffffffffffffffffff168273ffffffffffffffffffffffffffffffffffffffff16141561123f576040517f08c379a000000000000000000000000000000000000000000000000000000000815260040161123690614649565b60405180910390fd5b600360008373ffffffffffffffffffffffffffffffffffffffff1673ffffffffffffffffffffffffffffffffffffffff168152602001908152602001600020549050919050565b600b60009054906101000a900473ffffffffffffffffffffffffffffffffffffffff1681565b6060600180546112bb90614172565b80601f01602080910402602001604051908101604052809291908181526020018280546112e790614172565b80156113345780601f1061130957610100808354040283529160200191611334565b820191906000526020600020905b81548152906001019060200180831161131757829003601f168201915b5050505050905090565b833373ffffffffffffffffffffffffffffffffffffffff1661135f82610be0565b73ffffffffffffffffffffffffffffffffffffffff16146113ac576040517f82b4290000000000000000000000000000000000000000000000000000000000815260040160405180910390fd5b6113b8858585856127b7565b5050505050565b6113d16113ca61207b565b838361286f565b5050565b60006008826040516113e791906146a5565b9081526020016040518091039020549050919050565b600682805160208101820180518482526020830160208501208183528095505050505050818051602081018201805184825260208301602085012081835280955050505050506000915091505080600001805461145990614172565b80601f016020809104026020016040519081016040528092919081815260200182805461148590614172565b80156114d25780601f106114a7576101008083540402835291602001916114d2565b820191906000526020600020905b8154815290600101906020018083116114b557829003601f168201915b5050505050908060010180546114e790614172565b80601f016020809104026020016040519081016040528092919081815260200182805461151390614172565b80156115605780601f1061153557610100808354040283529160200191611560565b820191906000526020600020905b81548152906001019060200180831161154357829003601f168201915b50505050509080600201805461157590614172565b80601f01602080910402602001604051908101604052809291908181526020018280546115a190614172565b80156115ee5780601f106115c3576101008083540402835291602001916115ee565b820191906000526020600020905b8154815290600101906020018083116115d157829003601f168201915b5050505050905083565b606060405180604001604052806040518060400160405280600681526020017f737472696e67000000000000000000000000000000000000000000000000000081525081526020016040518060400160405280600681526020017f737472696e67000000000000000000000000000000000000000000000000000081525081525060405180604001604052808581526020018481525060405160200161169f92919061475e565b604051602081830303815290604052905092915050565b60606006846040516116c891906146a5565b90815260200160405180910390206116e084846115f8565b6040516116ed91906147c6565b9081526020016040518091039020600201805461170990614172565b80601f016020809104026020016040519081016040528092919081815260200182805461173590614172565b80156117825780601f1061175757610100808354040283529160200191611782565b820191906000526020600020905b81548152906001019060200180831161176557829003601f168201915b505050505090509392505050565b6117a161179b61207b565b83612318565b6117e0576040517f08c379a00000000000000000000000000000000000000000000000000000000081526004016117d7906143cc565b60405180910390fd5b6117ec848484846129dc565b50505050565b60606117fd8261200f565b61183c576040517f08c379a00000000000000000000000000000000000000000000000000000000081526004016118339061484f565b60405180910390fd5b600060076000848152602001908152602001600020805461185c90614172565b80601f016020809104026020016040519081016040528092919081815260200182805461188890614172565b80156118d55780601f106118aa576101008083540402835291602001916118d5565b820191906000526020600020905b8154815290600101906020018083116118b857829003601f168201915b5050505050905060006118e782612163565b905060006118f482612a38565b9050600083600a60405160200161190c92919061494f565b60405160208183030381529060405290506000600c82600d6040516020016119369392919061497e565b6040516020818303038152906040529050600061197d8361195684612b99565b8660405160200161196993929190614b2b565b604051602081830303815290604052612b99565b90506000816040516020016119929190614bd4565b60405160208183030381529060405290506119c460405180606001604052806039815260200161541960399139612671565b611a036040518060400160405280600e81526020017f46696e616c20746f6b656e55524900000000000000000000000000000000000081525082611e6d565b611a2460405180606001604052806039815260200161548360399139612671565b80975050505050505050919050565b600080611a8384848080601f016020809104026020016040519081016040528093929190818152602001838380828437600081840152601f19601f82011690508083019250505050505050612163565b905060028111611a9257600080fd5b6103e8611ac6600283611aa59190614c25565b6706f05b59d3b20000611ab89190614c25565b67016345785d8a0000612d31565b611ad09190614c25565b91505092915050565b6000600560008473ffffffffffffffffffffffffffffffffffffffff1673ffffffffffffffffffffffffffffffffffffffff16815260200190815260200160002060008373ffffffffffffffffffffffffffffffffffffffff1673ffffffffffffffffffffffffffffffffffffffff16815260200190815260200160002060009054906101000a900460ff16905092915050565b600073ffffffffffffffffffffffffffffffffffffffff16611bd283838080601f016020809104026020016040519081016040528093929190818152602001838380828437600081840152601f19601f82011690508083019250505050505050610be0565b73ffffffffffffffffffffffffffffffffffffffff1614611c1f576040517f3a81d6fc00000000000000000000000000000000000000000000000000000000815260040160405180910390fd5b611c298282610b13565b611c6c5781816040517f7f19f48d000000000000000000000000000000000000000000000000000000008152600401611c63929190614c83565b60405180910390fd5b6000611c788383611a33565b905080341015611cbd576040517f08c379a0000000000000000000000000000000000000000000000000000000008152600401611cb490614d19565b60405180910390fd5b6000611cc9600961270a565b9050611dbd6040518060600160405280603181526020016154526031913985858080601f016020809104026020016040519081016040528093929190818152602001838380828437600081840152601f19601f82011690508083019250505050505050600a8054611d3990614172565b80601f0160208091040260200160405190810160405280929190818152602001828054611d6590614172565b8015611db25780601f10611d8757610100808354040283529160200191611db2565b820191906000526020600020905b815481529060010190602001808311611d9557829003601f168201915b505050505084612d4b565b611dc73382612ded565b611e1584848080601f016020809104026020016040519081016040528093929190818152602001838380828437600081840152601f19601f8201169050808301925050505050505033612e0b565b8383600760008481526020019081526020016000209190611e37929190613343565b508060088585604051611e4b929190614d5e565b908152602001604051809103902081905550611e676009612ea4565b50505050565b611f058282604051602401611e83929190614d77565b6040516020818303038152906040527f4b5c4277000000000000000000000000000000000000000000000000000000007bffffffffffffffffffffffffffffffffffffffffffffffffffffffff19166020820180517bffffffffffffffffffffffffffffffffffffffffffffffffffffffff8381831617835250505050612eba565b5050565b611fa18282604051602401611f1f929190614dae565b6040516020818303038152906040527f319af333000000000000000000000000000000000000000000000000000000007bffffffffffffffffffffffffffffffffffffffffffffffffffffffff19166020820180517bffffffffffffffffffffffffffffffffffffffffffffffffffffffff8381831617835250505050612eba565b5050565b60007f01ffc9a7000000000000000000000000000000000000000000000000000000007bffffffffffffffffffffffffffffffffffffffffffffffffffffffff1916827bffffffffffffffffffffffffffffffffffffffffffffffffffffffff1916149050919050565b60008073ffffffffffffffffffffffffffffffffffffffff166002600084815260200190815260200160002060009054906101000a900473ffffffffffffffffffffffffffffffffffffffff1673ffffffffffffffffffffffffffffffffffffffff1614159050919050565b600033905090565b816004600083815260200190815260200160002060006101000a81548173ffffffffffffffffffffffffffffffffffffffff021916908373ffffffffffffffffffffffffffffffffffffffff160217905550808273ffffffffffffffffffffffffffffffffffffffff166120f683610f3e565b73ffffffffffffffffffffffffffffffffffffffff167f8c5be1e5ebec7d5bd14f71427d1e84f3dd0314c0f7b2291e5b200ac8c7c3b92560405160405180910390a45050565b6000612147836113d5565b9050612154338383610e7e565b61215e8383612e0b565b505050565b60008060008084519050600092505b8082101561230d57600085838151811061218f5761218e614530565b5b602001015160f81c60f81b9050608060f81b817effffffffffffffffffffffffffffffffffffffffffffffffffffffffffffff191610156121de576001836121d79190614dde565b92506122f9565b60e060f81b817effffffffffffffffffffffffffffffffffffffffffffffffffffffffffffff19161015612220576002836122199190614dde565b92506122f8565b60f060f81b817effffffffffffffffffffffffffffffffffffffffffffffffffffffffffffff191610156122625760038361225b9190614dde565b92506122f7565b60f8801b817effffffffffffffffffffffffffffffffffffffffffffffffffffffffffffff191610156122a35760048361229c9190614dde565b92506122f6565b60fc60f81b817effffffffffffffffffffffffffffffffffffffffffffffffffffffffffffff191610156122e5576005836122de9190614dde565b92506122f5565b6006836122f29190614dde565b92505b5b5b5b5b5082806123059061458e565b935050612172565b829350505050919050565b60006123238261200f565b612362576040517f08c379a000000000000000000000000000000000000000000000000000000000815260040161235990614ea6565b60405180910390fd5b600061236d83610f3e565b90508073ffffffffffffffffffffffffffffffffffffffff168473ffffffffffffffffffffffffffffffffffffffff1614806123dc57508373ffffffffffffffffffffffffffffffffffffffff166123c4846108f9565b73ffffffffffffffffffffffffffffffffffffffff16145b806123ed57506123ec8185611ad9565b5b91505092915050565b8273ffffffffffffffffffffffffffffffffffffffff1661241682610f3e565b73ffffffffffffffffffffffffffffffffffffffff161461246c576040517f08c379a000000000000000000000000000000000000000000000000000000000815260040161246390614f38565b60405180910390fd5b600073ffffffffffffffffffffffffffffffffffffffff168273ffffffffffffffffffffffffffffffffffffffff1614156124dc576040517f08c379a00000000000000000000000000000000000000000000000000000000081526004016124d390614fca565b60405180910390fd5b6124e7838383612ee3565b6124f2600082612083565b6001600360008573ffffffffffffffffffffffffffffffffffffffff1673ffffffffffffffffffffffffffffffffffffffff16815260200190815260200160002060008282546125429190614fea565b925050819055506001600360008473ffffffffffffffffffffffffffffffffffffffff1673ffffffffffffffffffffffffffffffffffffffff16815260200190815260200160002060008282546125999190614dde565b92505081905550816002600083815260200190815260200160002060006101000a81548173ffffffffffffffffffffffffffffffffffffffff021916908373ffffffffffffffffffffffffffffffffffffffff160217905550808273ffffffffffffffffffffffffffffffffffffffff168473ffffffffffffffffffffffffffffffffffffffff167fddf252ad1be2c89b69c2b068fc378daa952ba7f163c4a11628f55a4df523b3ef60405160405180910390a4612658838383612ee8565b505050565b600061266a82604c612eed565b9050919050565b61270781604051602401612685919061365a565b6040516020818303038152906040527f41304fac000000000000000000000000000000000000000000000000000000007bffffffffffffffffffffffffffffffffffffffffffffffffffffffff19166020820180517bffffffffffffffffffffffffffffffffffffffffffffffffffffffff8381831617835250505050612eba565b50565b600081600001549050919050565b6127b28383836040516024016127309392919061501e565b6040516020818303038152906040527fa3f5c739000000000000000000000000000000000000000000000000000000007bffffffffffffffffffffffffffffffffffffffffffffffffffffffff19166020820180517bffffffffffffffffffffffffffffffffffffffffffffffffffffffff8381831617835250505050612eba565b505050565b60006006856040516127c991906146a5565b90815260200160405180910390206127e185856115f8565b6040516127ee91906147c6565b90815260200160405180910390209050838160000190805190602001906128169291906133c9565b508281600101908051906020019061282f9291906133c9565b50816040516020016128419190613fb7565b60405160208183030381529060405281600201908051906020019061286792919061344f565b505050505050565b8173ffffffffffffffffffffffffffffffffffffffff168373ffffffffffffffffffffffffffffffffffffffff1614156128de576040517f08c379a00000000000000000000000000000000000000000000000000000000081526004016128d5906150af565b60405180910390fd5b80600560008573ffffffffffffffffffffffffffffffffffffffff1673ffffffffffffffffffffffffffffffffffffffff16815260200190815260200160002060008473ffffffffffffffffffffffffffffffffffffffff1673ffffffffffffffffffffffffffffffffffffffff16815260200190815260200160002060006101000a81548160ff0219169083151502179055508173ffffffffffffffffffffffffffffffffffffffff168373ffffffffffffffffffffffffffffffffffffffff167f17307eab39ab6107e8899845ad3d59bd9653f200f220920489ca2b5937696c31836040516129cf91906135a6565b60405180910390a3505050565b6129e78484846123f6565b6129f384848484612f63565b612a32576040517f08c379a0000000000000000000000000000000000000000000000000000000008152600401612a2990615141565b60405180910390fd5b50505050565b60606000821415612a80576040518060400160405280600181526020017f30000000000000000000000000000000000000000000000000000000000000008152509050612b94565b600082905060005b60008214612ab2578080612a9b9061458e565b915050600a82612aab9190614c25565b9150612a88565b60008167ffffffffffffffff811115612ace57612acd6137b1565b5b6040519080825280601f01601f191660200182016040528015612b005781602001600182028036833780820191505090505b5090505b60008514612b8d57600182612b199190614fea565b9150600a85612b289190615161565b6030612b349190614dde565b60f81b818381518110612b4a57612b49614530565b5b60200101907effffffffffffffffffffffffffffffffffffffffffffffffffffffffffffff1916908160001a905350600a85612b869190614c25565b9450612b04565b8093505050505b919050565b60606000825190506000811415612bc25760405180602001604052806000815250915050612d2c565b60006003600283612bd39190614dde565b612bdd9190614c25565b6004612be99190615192565b90506000602082612bfa9190614dde565b67ffffffffffffffff811115612c1357612c126137b1565b5b6040519080825280601f01601f191660200182016040528015612c455781602001600182028036833780820191505090505b50905060006040518060600160405280604081526020016154bc604091399050600181016020830160005b86811015612ce95760038101905062ffffff818a015116603f8160121c168401518060081b905060ff603f83600c1c1686015116810190508060081b905060ff603f8360061c1686015116810190508060081b905060ff603f831686015116810190508060e01b90508084526004840193505050612c70565b506003860660018114612d035760028114612d1357612d1e565b613d3d60f01b6002830352612d1e565b603d60f81b60018303525b508484525050819450505050505b919050565b600081831015612d415781612d43565b825b905092915050565b612de784848484604051602401612d6594939291906151ec565b6040516020818303038152906040527f9fd009f5000000000000000000000000000000000000000000000000000000007bffffffffffffffffffffffffffffffffffffffffffffffffffffffff19166020820180517bffffffffffffffffffffffffffffffffffffffffffffffffffffffff8381831617835250505050612eba565b50505050565b612e078282604051806020016040528060008152506130eb565b5050565b612ea0826040518060400160405280600781526020017f61646472657373000000000000000000000000000000000000000000000000008152506040518060400160405280600581526020017f6f776e657200000000000000000000000000000000000000000000000000000081525084604051602001612e8c9190613720565b6040516020818303038152906040526127b7565b5050565b6001816000016000828254019250508190555050565b60008151905060006a636f6e736f6c652e6c6f679050602083016000808483855afa5050505050565b505050565b505050565b6000601482612efc9190614dde565b83511015612f3f576040517f08c379a0000000000000000000000000000000000000000000000000000000008152600401612f3690615292565b60405180910390fd5b60006c01000000000000000000000000836020860101510490508091505092915050565b6000612f848473ffffffffffffffffffffffffffffffffffffffff16613146565b156130de578373ffffffffffffffffffffffffffffffffffffffff1663150b7a02612fad61207b565b8786866040518563ffffffff1660e01b8152600401612fcf94939291906152b2565b6020604051808303816000875af192505050801561300b57506040513d601f19601f820116820180604052508101906130089190615313565b60015b61308e573d806000811461303b576040519150601f19603f3d011682016040523d82523d6000602084013e613040565b606091505b50600081511415613086576040517f08c379a000000000000000000000000000000000000000000000000000000000815260040161307d90615141565b60405180910390fd5b805181602001fd5b63150b7a0260e01b7bffffffffffffffffffffffffffffffffffffffffffffffffffffffff1916817bffffffffffffffffffffffffffffffffffffffffffffffffffffffff1916149150506130e3565b600190505b949350505050565b6130f58383613169565b6131026000848484612f63565b613141576040517f08c379a000000000000000000000000000000000000000000000000000000000815260040161313890615141565b60405180910390fd5b505050565b6000808273ffffffffffffffffffffffffffffffffffffffff163b119050919050565b600073ffffffffffffffffffffffffffffffffffffffff168273ffffffffffffffffffffffffffffffffffffffff1614156131d9576040517f08c379a00000000000000000000000000000000000000000000000000000000081526004016131d09061538c565b60405180910390fd5b6131e28161200f565b15613222576040517f08c379a0000000000000000000000000000000000000000000000000000000008152600401613219906153f8565b60405180910390fd5b61322e60008383612ee3565b6001600360008473ffffffffffffffffffffffffffffffffffffffff1673ffffffffffffffffffffffffffffffffffffffff168152602001908152602001600020600082825461327e9190614dde565b92505081905550816002600083815260200190815260200160002060006101000a81548173ffffffffffffffffffffffffffffffffffffffff021916908373ffffffffffffffffffffffffffffffffffffffff160217905550808273ffffffffffffffffffffffffffffffffffffffff16600073ffffffffffffffffffffffffffffffffffffffff167fddf252ad1be2c89b69c2b068fc378daa952ba7f163c4a11628f55a4df523b3ef60405160405180910390a461333f60008383612ee8565b5050565b82805461334f90614172565b90600052602060002090601f01602090048101928261337157600085556133b8565b82601f1061338a57803560ff19168380011785556133b8565b828001600101855582156133b8579182015b828111156133b757823582559160200191906001019061339c565b5b5090506133c591906134d5565b5090565b8280546133d590614172565b90600052602060002090601f0160209004810192826133f7576000855561343e565b82601f1061341057805160ff191683800117855561343e565b8280016001018555821561343e579182015b8281111561343d578251825591602001919060010190613422565b5b50905061344b91906134d5565b5090565b82805461345b90614172565b90600052602060002090601f01602090048101928261347d57600085556134c4565b82601f1061349657805160ff19168380011785556134c4565b828001600101855582156134c4579182015b828111156134c35782518255916020019190600101906134a8565b5b5090506134d191906134d5565b5090565b5b808211156134ee5760008160009055506001016134d6565b5090565b6000604051905090565b600080fd5b600080fd5b60007fffffffff0000000000000000000000000000000000000000000000000000000082169050919050565b61353b81613506565b811461354657600080fd5b50565b60008135905061355881613532565b92915050565b600060208284031215613574576135736134fc565b5b600061358284828501613549565b91505092915050565b60008115159050919050565b6135a08161358b565b82525050565b60006020820190506135bb6000830184613597565b92915050565b600081519050919050565b600082825260208201905092915050565b60005b838110156135fb5780820151818401526020810190506135e0565b8381111561360a576000848401525b50505050565b6000601f19601f8301169050919050565b600061362c826135c1565b61363681856135cc565b93506136468185602086016135dd565b61364f81613610565b840191505092915050565b600060208201905081810360008301526136748184613621565b905092915050565b6000819050919050565b61368f8161367c565b811461369a57600080fd5b50565b6000813590506136ac81613686565b92915050565b6000602082840312156136c8576136c76134fc565b5b60006136d68482850161369d565b91505092915050565b600073ffffffffffffffffffffffffffffffffffffffff82169050919050565b600061370a826136df565b9050919050565b61371a816136ff565b82525050565b60006020820190506137356000830184613711565b92915050565b613744816136ff565b811461374f57600080fd5b50565b6000813590506137618161373b565b92915050565b6000806040838503121561377e5761377d6134fc565b5b600061378c85828601613752565b925050602061379d8582860161369d565b9150509250929050565b600080fd5b600080fd5b7f4e487b7100000000000000000000000000000000000000000000000000000000600052604160045260246000fd5b6137e982613610565b810181811067ffffffffffffffff82111715613808576138076137b1565b5b80604052505050565b600061381b6134f2565b905061382782826137e0565b919050565b600067ffffffffffffffff821115613847576138466137b1565b5b61385082613610565b9050602081019050919050565b82818337600083830152505050565b600061387f61387a8461382c565b613811565b90508281526020810184848401111561389b5761389a6137ac565b5b6138a684828561385d565b509392505050565b600082601f8301126138c3576138c26137a7565b5b81356138d384826020860161386c565b91505092915050565b600080604083850312156138f3576138f26134fc565b5b600083013567ffffffffffffffff81111561391157613910613501565b5b61391d858286016138ae565b925050602061392e85828601613752565b9150509250929050565b600080fd5b600080fd5b60008083601f840112613958576139576137a7565b5b8235905067ffffffffffffffff81111561397557613974613938565b5b6020830191508360018202830111156139915761399061393d565b5b9250929050565b600080602083850312156139af576139ae6134fc565b5b600083013567ffffffffffffffff8111156139cd576139cc613501565b5b6139d985828601613942565b92509250509250929050565b6000806000606084860312156139fe576139fd6134fc565b5b6000613a0c86828701613752565b9350506020613a1d86828701613752565b9250506040613a2e8682870161369d565b9150509250925092565b600060208284031215613a4e57613a4d6134fc565b5b600082013567ffffffffffffffff811115613a6c57613a6b613501565b5b613a78848285016138ae565b91505092915050565b613a8a8161367c565b82525050565b6000602082019050613aa56000830184613a81565b92915050565b600081519050919050565b600082825260208201905092915050565b6000819050602082019050919050565b600082825260208201905092915050565b6000613af3826135c1565b613afd8185613ad7565b9350613b0d8185602086016135dd565b613b1681613610565b840191505092915050565b6000613b2d8383613ae8565b905092915050565b6000602082019050919050565b6000613b4d82613aab565b613b578185613ab6565b935083602082028501613b6985613ac7565b8060005b85811015613ba55784840389528151613b868582613b21565b9450613b9183613b35565b925060208a01995050600181019050613b6d565b50829750879550505050505092915050565b60006020820190508181036000830152613bd18184613b42565b905092915050565b600060208284031215613bef57613bee6134fc565b5b6000613bfd84828501613752565b91505092915050565b6000613c11826136df565b9050919050565b613c2181613c06565b82525050565b6000602082019050613c3c6000830184613c18565b92915050565b600067ffffffffffffffff821115613c5d57613c5c6137b1565b5b613c6682613610565b9050602081019050919050565b6000613c86613c8184613c42565b613811565b905082815260208101848484011115613ca257613ca16137ac565b5b613cad84828561385d565b509392505050565b600082601f830112613cca57613cc96137a7565b5b8135613cda848260208601613c73565b91505092915050565b60008060008060808587031215613cfd57613cfc6134fc565b5b600085013567ffffffffffffffff811115613d1b57613d1a613501565b5b613d27878288016138ae565b945050602085013567ffffffffffffffff811115613d4857613d47613501565b5b613d54878288016138ae565b935050604085013567ffffffffffffffff811115613d7557613d74613501565b5b613d81878288016138ae565b925050606085013567ffffffffffffffff811115613da257613da1613501565b5b613dae87828801613cb5565b91505092959194509250565b613dc38161358b565b8114613dce57600080fd5b50565b600081359050613de081613dba565b92915050565b60008060408385031215613dfd57613dfc6134fc565b5b6000613e0b85828601613752565b9250506020613e1c85828601613dd1565b9150509250929050565b60008060408385031215613e3d57613e3c6134fc565b5b600083013567ffffffffffffffff811115613e5b57613e5a613501565b5b613e67858286016138ae565b925050602083013567ffffffffffffffff811115613e8857613e87613501565b5b613e9485828601613cb5565b9150509250929050565b600081519050919050565b600082825260208201905092915050565b6000613ec582613e9e565b613ecf8185613ea9565b9350613edf8185602086016135dd565b613ee881613610565b840191505092915050565b60006060820190508181036000830152613f0d8186613621565b90508181036020830152613f218185613621565b90508181036040830152613f358184613eba565b9050949350505050565b60008060408385031215613f5657613f556134fc565b5b600083013567ffffffffffffffff811115613f7457613f73613501565b5b613f80858286016138ae565b925050602083013567ffffffffffffffff811115613fa157613fa0613501565b5b613fad858286016138ae565b9150509250929050565b60006020820190508181036000830152613fd18184613eba565b905092915050565b600080600060608486031215613ff257613ff16134fc565b5b600084013567ffffffffffffffff8111156140105761400f613501565b5b61401c868287016138ae565b935050602084013567ffffffffffffffff81111561403d5761403c613501565b5b614049868287016138ae565b925050604084013567ffffffffffffffff81111561406a57614069613501565b5b614076868287016138ae565b9150509250925092565b6000806000806080858703121561409a576140996134fc565b5b60006140a887828801613752565b94505060206140b987828801613752565b93505060406140ca8782880161369d565b925050606085013567ffffffffffffffff8111156140eb576140ea613501565b5b6140f787828801613cb5565b91505092959194509250565b6000806040838503121561411a576141196134fc565b5b600061412885828601613752565b925050602061413985828601613752565b9150509250929050565b7f4e487b7100000000000000000000000000000000000000000000000000000000600052602260045260246000fd5b6000600282049050600182168061418a57607f821691505b6020821081141561419e5761419d614143565b5b50919050565b7f4552433732313a20617070726f76656420717565727920666f72206e6f6e657860008201527f697374656e7420746f6b656e0000000000000000000000000000000000000000602082015250565b6000614200602c836135cc565b915061420b826141a4565b604082019050919050565b6000602082019050818103600083015261422f816141f3565b9050919050565b7f4552433732313a20617070726f76616c20746f2063757272656e74206f776e6560008201527f7200000000000000000000000000000000000000000000000000000000000000602082015250565b60006142926021836135cc565b915061429d82614236565b604082019050919050565b600060208201905081810360008301526142c181614285565b9050919050565b7f4552433732313a20617070726f76652063616c6c6572206973206e6f74206f7760008201527f6e6572206e6f7220617070726f76656420666f7220616c6c0000000000000000602082015250565b60006143246038836135cc565b915061432f826142c8565b604082019050919050565b6000602082019050818103600083015261435381614317565b9050919050565b7f4552433732313a207472616e736665722063616c6c6572206973206e6f74206f60008201527f776e6572206e6f7220617070726f766564000000000000000000000000000000602082015250565b60006143b66031836135cc565b91506143c18261435a565b604082019050919050565b600060208201905081810360008301526143e5816143a9565b9050919050565b600081905092915050565b50565b60006144076000836143ec565b9150614412826143f7565b600082019050919050565b6000614428826143fa565b9150819050919050565b7f4661696c656420746f207769746864726177204d617469630000000000000000600082015250565b60006144686018836135cc565b915061447382614432565b602082019050919050565b600060208201905081810360008301526144978161445b565b9050919050565b7f4552433732313a206f776e657220717565727920666f72206e6f6e657869737460008201527f656e7420746f6b656e0000000000000000000000000000000000000000000000602082015250565b60006144fa6029836135cc565b91506145058261449e565b604082019050919050565b60006020820190508181036000830152614529816144ed565b9050919050565b7f4e487b7100000000000000000000000000000000000000000000000000000000600052603260045260246000fd5b7f4e487b7100000000000000000000000000000000000000000000000000000000600052601160045260246000fd5b60006145998261367c565b91507fffffffffffffffffffffffffffffffffffffffffffffffffffffffffffffffff8214156145cc576145cb61455f565b5b600182019050919050565b7f4552433732313a2062616c616e636520717565727920666f7220746865207a6560008201527f726f206164647265737300000000000000000000000000000000000000000000602082015250565b6000614633602a836135cc565b915061463e826145d7565b604082019050919050565b6000602082019050818103600083015261466281614626565b9050919050565b600081905092915050565b600061467f826135c1565b6146898185614669565b93506146998185602086016135dd565b80840191505092915050565b60006146b18284614674565b915081905092915050565b600060029050919050565b600081905092915050565b6000819050919050565b6000602082019050919050565b60006146f4826146bc565b6146fe81856146c7565b935083602082028501614710856146d2565b8060005b8581101561474c578484038952815161472d8582613b21565b9450614738836146dc565b925060208a01995050600181019050614714565b50829750879550505050505092915050565b6000604082019050818103600083015261477881856146e9565b9050818103602083015261478c81846146e9565b90509392505050565b60006147a082613e9e565b6147aa81856143ec565b93506147ba8185602086016135dd565b80840191505092915050565b60006147d28284614795565b915081905092915050565b7f45524337323155524953746f726167653a2055524920717565727920666f722060008201527f6e6f6e6578697374656e7420746f6b656e000000000000000000000000000000602082015250565b60006148396031836135cc565b9150614844826147dd565b604082019050919050565b600060208201905081810360008301526148688161482c565b9050919050565b7f2e00000000000000000000000000000000000000000000000000000000000000600082015250565b60006148a5600183614669565b91506148b08261486f565b600182019050919050565b60008190508160005260206000209050919050565b600081546148dd81614172565b6148e78186614669565b94506001821660008114614902576001811461491357614946565b60ff19831686528186019350614946565b61491c856148bb565b60005b8381101561493e5781548189015260018201915060208101905061491f565b838801955050505b50505092915050565b600061495b8285614674565b915061496682614898565b915061497282846148d0565b91508190509392505050565b600061498a82866148d0565b91506149968285614674565b91506149a282846148d0565b9150819050949350505050565b7f7b226e616d65223a202200000000000000000000000000000000000000000000600082015250565b60006149e5600a83614669565b91506149f0826149af565b600a82019050919050565b7f222c20226465736372697074696f6e223a20224120646f6d61696e206f6e207460008201527f686520506f6c79676f6e204e616d652053657276696365222c2022696d61676560208201527f223a2022646174613a696d6167652f7376672b786d6c3b6261736536342c0000604082015250565b6000614a7d605e83614669565b9150614a88826149fb565b605e82019050919050565b7f222c226c656e677468223a220000000000000000000000000000000000000000600082015250565b6000614ac9600c83614669565b9150614ad482614a93565b600c82019050919050565b7f227d000000000000000000000000000000000000000000000000000000000000600082015250565b6000614b15600283614669565b9150614b2082614adf565b600282019050919050565b6000614b36826149d8565b9150614b428286614674565b9150614b4d82614a70565b9150614b598285614674565b9150614b6482614abc565b9150614b708284614674565b9150614b7b82614b08565b9150819050949350505050565b7f646174613a6170706c69636174696f6e2f6a736f6e3b6261736536342c000000600082015250565b6000614bbe601d83614669565b9150614bc982614b88565b601d82019050919050565b6000614bdf82614bb1565b9150614beb8284614674565b915081905092915050565b7f4e487b7100000000000000000000000000000000000000000000000000000000600052601260045260246000fd5b6000614c308261367c565b9150614c3b8361367c565b925082614c4b57614c4a614bf6565b5b828204905092915050565b6000614c6283856135cc565b9350614c6f83858461385d565b614c7883613610565b840190509392505050565b60006020820190508181036000830152614c9e818486614c56565b90509392505050565b7f496e73756666696369656e742066756e647320666f7220646f6d61696e20726560008201527f67697374726174696f6e2e000000000000000000000000000000000000000000602082015250565b6000614d03602b836135cc565b9150614d0e82614ca7565b604082019050919050565b60006020820190508181036000830152614d3281614cf6565b9050919050565b6000614d458385614669565b9350614d5283858461385d565b82840190509392505050565b6000614d6b828486614d39565b91508190509392505050565b60006040820190508181036000830152614d918185613621565b90508181036020830152614da58184613621565b90509392505050565b60006040820190508181036000830152614dc88185613621565b9050614dd76020830184613711565b9392505050565b6000614de98261367c565b9150614df48361367c565b9250827fffffffffffffffffffffffffffffffffffffffffffffffffffffffffffffffff03821115614e2957614e2861455f565b5b828201905092915050565b7f4552433732313a206f70657261746f7220717565727920666f72206e6f6e657860008201527f697374656e7420746f6b656e0000000000000000000000000000000000000000602082015250565b6000614e90602c836135cc565b9150614e9b82614e34565b604082019050919050565b60006020820190508181036000830152614ebf81614e83565b9050919050565b7f4552433732313a207472616e736665722066726f6d20696e636f72726563742060008201527f6f776e6572000000000000000000000000000000000000000000000000000000602082015250565b6000614f226025836135cc565b9150614f2d82614ec6565b604082019050919050565b60006020820190508181036000830152614f5181614f15565b9050919050565b7f4552433732313a207472616e7366657220746f20746865207a65726f2061646460008201527f7265737300000000000000000000000000000000000000000000000000000000602082015250565b6000614fb46024836135cc565b9150614fbf82614f58565b604082019050919050565b60006020820190508181036000830152614fe381614fa7565b9050919050565b6000614ff58261367c565b91506150008361367c565b9250828210156150135761501261455f565b5b828203905092915050565b600060608201905081810360008301526150388186613621565b90506150476020830185613a81565b81810360408301526150598184613621565b9050949350505050565b7f4552433732313a20617070726f766520746f2063616c6c657200000000000000600082015250565b60006150996019836135cc565b91506150a482615063565b602082019050919050565b600060208201905081810360008301526150c88161508c565b9050919050565b7f4552433732313a207472616e7366657220746f206e6f6e20455243373231526560008201527f63656976657220696d706c656d656e7465720000000000000000000000000000602082015250565b600061512b6032836135cc565b9150615136826150cf565b604082019050919050565b6000602082019050818103600083015261515a8161511e565b9050919050565b600061516c8261367c565b91506151778361367c565b92508261518757615186614bf6565b5b828206905092915050565b600061519d8261367c565b91506151a88361367c565b9250817fffffffffffffffffffffffffffffffffffffffffffffffffffffffffffffffff04831182151516156151e1576151e061455f565b5b828202905092915050565b600060808201905081810360008301526152068187613621565b9050818103602083015261521a8186613621565b9050818103604083015261522e8185613621565b905061523d6060830184613a81565b95945050505050565b7f746f416464726573735f6f75744f66426f756e64730000000000000000000000600082015250565b600061527c6015836135cc565b915061528782615246565b602082019050919050565b600060208201905081810360008301526152ab8161526f565b9050919050565b60006080820190506152c76000830187613711565b6152d46020830186613711565b6152e16040830185613a81565b81810360608301526152f38184613eba565b905095945050505050565b60008151905061530d81613532565b92915050565b600060208284031215615329576153286134fc565b5b6000615337848285016152fe565b91505092915050565b7f4552433732313a206d696e7420746f20746865207a65726f2061646472657373600082015250565b60006153766020836135cc565b915061538182615340565b602082019050919050565b600060208201905081810360008301526153a581615369565b9050919050565b7f4552433732313a20746f6b656e20616c7265616479206d696e74656400000000600082015250565b60006153e2601c836135cc565b91506153ed826153ac565b602082019050919050565b60006020820190508181036000830152615411816153d5565b905091905056fe0a2d2d2d2d2d2d2d2d2d2d2d2d2d2d2d2d2d2d2d2d2d2d2d2d2d2d2d2d2d2d2d2d2d2d2d2d2d2d2d2d2d2d2d2d2d2d2d2d2d2d2d2d2d2d2d2d5265676973746572696e672025732e2573206f6e2074686520636f6e7472616374207769746820746f6b656e49442025642d2d2d2d2d2d2d2d2d2d2d2d2d2d2d2d2d2d2d2d2d2d2d2d2d2d2d2d2d2d2d2d2d2d2d2d2d2d2d2d2d2d2d2d2d2d2d2d2d2d2d2d2d2d2d2d0a4142434445464748494a4b4c4d4e4f505152535455565758595a6162636465666768696a6b6c6d6e6f707172737475767778797a303132333435363738392b2fa2646970667358221220f136a16a0b5af0069265675d373af1d04f0cd65ed197103ff2438bb841aa010664736f6c634300080a00333c73766720786d6c6e733d22687474703a2f2f7777772e77332e6f72672f323030302f737667222077696474683d2232373022206865696768743d22323730222066696c6c3d226e6f6e65223e3c706174682066696c6c3d2275726c282342292220643d224d302030683237307632373048307a222f3e3c646566733e3c66696c7465722069643d22412220636f6c6f722d696e746572706f6c6174696f6e2d66696c746572733d2273524742222066696c746572556e6974733d227573657253706163654f6e55736522206865696768743d22323730222077696474683d22323730223e3c666544726f70536861646f772064783d2230222064793d22312220737464446576696174696f6e3d22322220666c6f6f642d6f7061636974793d222e323235222077696474683d223230302522206865696768743d2232303025222f3e3c2f66696c7465723e3c2f646566733e3c7061746820643d224d37322e3836332034322e393439632d2e3636382d2e3338372d312e3432362d2e35392d322e3139372d2e3539732d312e3532392e3230342d322e3139372e35396c2d31302e30383120362e3033322d362e383520332e3933342d31302e30383120362e303332632d2e3636382e3338372d312e3432362e35392d322e3139372e3539732d312e3532392d2e3230342d322e3139372d2e35396c2d382e3031332d342e37323161342e353220342e35322030203020312d312e3538392d312e363136632d2e3338342d2e3636352d2e3539342d312e3431382d2e3630382d322e313837762d392e3331632d2e3031332d2e3737352e3138352d312e3533382e3537322d322e32303861342e323520342e323520302030203120312e3632352d312e3539356c372e3838342d342e3539632e3636382d2e33383720312e3432362d2e353920322e3139372d2e353973312e3532392e32303420322e3139372e35396c372e38383420342e353961342e353220342e353220302030203120312e35383920312e363136632e3338342e3636352e35393420312e3431382e36303820322e31383776362e3033326c362e38352d342e303635762d362e303332632e3031332d2e3737352d2e3138352d312e3533382d2e3537322d322e32303861342e323520342e32352030203020302d312e3632352d312e3539354c34312e3435362032342e3539632d2e3636382d2e3338372d312e3432362d2e35392d322e3139372d2e3539732d312e3532392e3230342d322e3139372e35396c2d31342e38363420382e36353561342e323520342e32352030203020302d312e36323520312e353935632d2e3338372e36372d2e35383520312e3433342d2e35373220322e3230387631372e343431632d2e3031332e3737352e31383520312e3533382e35373220322e32303861342e323520342e323520302030203020312e36323520312e3539356c31342e38363420382e363535632e3636382e33383720312e3432362e353920322e3139372e353973312e3532392d2e32303420322e3139372d2e35396c31302e3038312d352e39303120362e38352d342e3036352031302e3038312d352e393031632e3636382d2e33383720312e3432362d2e353920322e3139372d2e353973312e3532392e32303420322e3139372e35396c372e38383420342e353961342e353220342e353220302030203120312e35383920312e363136632e3338342e3636352e35393420312e3431382e36303820322e31383776392e333131632e3031332e3737352d2e31383520312e3533382d2e35373220322e32303861342e323520342e32352030203020312d312e36323520312e3539356c2d372e38383420342e373231632d2e3636382e3338372d312e3432362e35392d322e3139372e3539732d312e3532392d2e3230342d322e3139372d2e35396c2d372e3838342d342e353961342e353220342e35322030203020312d312e3538392d312e363136632d2e3338352d2e3636352d2e3539342d312e3431382d2e3630382d322e313837762d362e3033326c2d362e383520342e30363576362e303332632d2e3031332e3737352e31383520312e3533382e35373220322e32303861342e323520342e323520302030203020312e36323520312e3539356c31342e38363420382e363535632e3636382e33383720312e3432362e353920322e3139372e353973312e3532392d2e32303420322e3139372d2e35396c31342e3836342d382e363535632e3635372d2e33393420312e3230342d2e393520312e3538392d312e363136732e3539342d312e3431382e3630392d322e3138375635352e353338632e3031332d2e3737352d2e3138352d312e3533382d2e3537322d322e32303861342e323520342e32352030203020302d312e3632352d312e3539356c2d31342e3939332d382e3738367a222066696c6c3d2223666666222f3e3c646566733e3c6c696e6561724772616469656e742069643d2242222078313d2230222079313d2230222078323d22323730222079323d2232373022206772616469656e74556e6974733d227573657253706163654f6e557365223e3c73746f702073746f702d636f6c6f723d2223636235656565222f3e3c73746f70206f66667365743d2231222073746f702d636f6c6f723d2223306364376534222073746f702d6f7061636974793d222e3939222f3e3c2f6c696e6561724772616469656e743e3c2f646566733e3c7465787420783d2233322e352220793d223233312220666f6e742d73697a653d223237222066696c6c3d2223666666222066696c7465723d2275726c282341292220666f6e742d66616d696c793d22506c7573204a616b617274612053616e732c44656a6156752053616e732c4e6f746f20436f6c6f7220456d6f6a692c4170706c6520436f6c6f7220456d6f6a692c73616e732d73657269662220666f6e742d7765696768743d22626f6c64223e",
  "devdoc": {
    "kind": "dev",
    "methods": {
      "approve(address,uint256)": {
        "details": "See {IERC721-approve}."
      },
      "balanceOf(address)": {
        "details": "See {IERC721-balanceOf}."
      },
      "getApproved(uint256)": {
        "details": "See {IERC721-getApproved}."
      },
      "isApprovedForAll(address,address)": {
        "details": "See {IERC721-isApprovedForAll}."
      },
      "name()": {
        "details": "See {IERC721Metadata-name}."
      },
      "ownerOf(uint256)": {
        "details": "See {IERC721-ownerOf}."
      },
      "safeTransferFrom(address,address,uint256)": {
        "details": "See {IERC721-safeTransferFrom}."
      },
      "safeTransferFrom(address,address,uint256,bytes)": {
        "details": "See {IERC721-safeTransferFrom}."
      },
      "setApprovalForAll(address,bool)": {
        "details": "See {IERC721-setApprovalForAll}."
      },
      "supportsInterface(bytes4)": {
        "details": "See {IERC165-supportsInterface}."
      },
      "symbol()": {
        "details": "See {IERC721Metadata-symbol}."
      },
      "tokenURI(uint256)": {
        "details": "See {IERC721Metadata-tokenURI}."
      },
      "transferFrom(address,address,uint256)": {
        "details": "See {IERC721-transferFrom}."
      }
    },
    "version": 1
  },
  "userdoc": {
    "kind": "user",
    "methods": {},
    "version": 1
  },
  "storageLayout": {
    "storage": [
      {
        "astId": 25,
        "contract": "contracts/Registry.sol:Registry",
        "label": "_name",
        "offset": 0,
        "slot": "0",
        "type": "t_string_storage"
      },
      {
        "astId": 27,
        "contract": "contracts/Registry.sol:Registry",
        "label": "_symbol",
        "offset": 0,
        "slot": "1",
        "type": "t_string_storage"
      },
      {
        "astId": 31,
        "contract": "contracts/Registry.sol:Registry",
        "label": "_owners",
        "offset": 0,
        "slot": "2",
        "type": "t_mapping(t_uint256,t_address)"
      },
      {
        "astId": 35,
        "contract": "contracts/Registry.sol:Registry",
        "label": "_balances",
        "offset": 0,
        "slot": "3",
        "type": "t_mapping(t_address,t_uint256)"
      },
      {
        "astId": 39,
        "contract": "contracts/Registry.sol:Registry",
        "label": "_tokenApprovals",
        "offset": 0,
        "slot": "4",
        "type": "t_mapping(t_uint256,t_address)"
      },
      {
        "astId": 45,
        "contract": "contracts/Registry.sol:Registry",
        "label": "_operatorApprovals",
        "offset": 0,
        "slot": "5",
        "type": "t_mapping(t_address,t_mapping(t_address,t_bool))"
      },
      {
        "astId": 1789,
        "contract": "contracts/Registry.sol:Registry",
        "label": "records",
        "offset": 0,
        "slot": "6",
        "type": "t_mapping(t_string_memory_ptr,t_mapping(t_bytes_memory_ptr,t_struct(Record)1774_storage))"
      },
      {
        "astId": 1793,
        "contract": "contracts/Registry.sol:Registry",
        "label": "names",
        "offset": 0,
        "slot": "7",
        "type": "t_mapping(t_uint256,t_string_storage)"
      },
      {
        "astId": 1797,
        "contract": "contracts/Registry.sol:Registry",
        "label": "namesToIds",
        "offset": 0,
        "slot": "8",
        "type": "t_mapping(t_string_memory_ptr,t_uint256)"
      },
      {
        "astId": 1800,
        "contract": "contracts/Registry.sol:Registry",
        "label": "_tokenIds",
        "offset": 0,
        "slot": "9",
        "type": "t_struct(Counter)1349_storage"
      },
      {
        "astId": 1802,
        "contract": "contracts/Registry.sol:Registry",
        "label": "tld",
        "offset": 0,
        "slot": "10",
        "type": "t_string_storage"
      },
      {
        "astId": 1804,
        "contract": "contracts/Registry.sol:Registry",
        "label": "owner",
        "offset": 0,
        "slot": "11",
        "type": "t_address_payable"
      },
      {
        "astId": 1807,
        "contract": "contracts/Registry.sol:Registry",
        "label": "svgPartOne",
        "offset": 0,
        "slot": "12",
        "type": "t_string_storage"
      },
      {
        "astId": 1810,
        "contract": "contracts/Registry.sol:Registry",
        "label": "svgPartTwo",
        "offset": 0,
        "slot": "13",
        "type": "t_string_storage"
      }
    ],
    "types": {
      "t_address": {
        "encoding": "inplace",
        "label": "address",
        "numberOfBytes": "20"
      },
      "t_address_payable": {
        "encoding": "inplace",
        "label": "address payable",
        "numberOfBytes": "20"
      },
      "t_bool": {
        "encoding": "inplace",
        "label": "bool",
        "numberOfBytes": "1"
      },
      "t_bytes_memory_ptr": {
        "encoding": "bytes",
        "label": "bytes",
        "numberOfBytes": "32"
      },
      "t_bytes_storage": {
        "encoding": "bytes",
        "label": "bytes",
        "numberOfBytes": "32"
      },
      "t_mapping(t_address,t_bool)": {
        "encoding": "mapping",
        "key": "t_address",
        "label": "mapping(address => bool)",
        "numberOfBytes": "32",
        "value": "t_bool"
      },
      "t_mapping(t_address,t_mapping(t_address,t_bool))": {
        "encoding": "mapping",
        "key": "t_address",
        "label": "mapping(address => mapping(address => bool))",
        "numberOfBytes": "32",
        "value": "t_mapping(t_address,t_bool)"
      },
      "t_mapping(t_address,t_uint256)": {
        "encoding": "mapping",
        "key": "t_address",
        "label": "mapping(address => uint256)",
        "numberOfBytes": "32",
        "value": "t_uint256"
      },
      "t_mapping(t_bytes_memory_ptr,t_struct(Record)1774_storage)": {
        "encoding": "mapping",
        "key": "t_bytes_memory_ptr",
        "label": "mapping(bytes => struct Registry.Record)",
        "numberOfBytes": "32",
        "value": "t_struct(Record)1774_storage"
      },
      "t_mapping(t_string_memory_ptr,t_mapping(t_bytes_memory_ptr,t_struct(Record)1774_storage))": {
        "encoding": "mapping",
        "key": "t_string_memory_ptr",
        "label": "mapping(string => mapping(bytes => struct Registry.Record))",
        "numberOfBytes": "32",
        "value": "t_mapping(t_bytes_memory_ptr,t_struct(Record)1774_storage)"
      },
      "t_mapping(t_string_memory_ptr,t_uint256)": {
        "encoding": "mapping",
        "key": "t_string_memory_ptr",
        "label": "mapping(string => uint256)",
        "numberOfBytes": "32",
        "value": "t_uint256"
      },
      "t_mapping(t_uint256,t_address)": {
        "encoding": "mapping",
        "key": "t_uint256",
        "label": "mapping(uint256 => address)",
        "numberOfBytes": "32",
        "value": "t_address"
      },
      "t_mapping(t_uint256,t_string_storage)": {
        "encoding": "mapping",
        "key": "t_uint256",
        "label": "mapping(uint256 => string)",
        "numberOfBytes": "32",
        "value": "t_string_storage"
      },
      "t_string_memory_ptr": {
        "encoding": "bytes",
        "label": "string",
        "numberOfBytes": "32"
      },
      "t_string_storage": {
        "encoding": "bytes",
        "label": "string",
        "numberOfBytes": "32"
      },
      "t_struct(Counter)1349_storage": {
        "encoding": "inplace",
        "label": "struct Counters.Counter",
        "members": [
          {
            "astId": 1348,
            "contract": "contracts/Registry.sol:Registry",
            "label": "_value",
            "offset": 0,
            "slot": "0",
            "type": "t_uint256"
          }
        ],
        "numberOfBytes": "32"
      },
      "t_struct(Record)1774_storage": {
        "encoding": "inplace",
        "label": "struct Registry.Record",
        "members": [
          {
            "astId": 1769,
            "contract": "contracts/Registry.sol:Registry",
            "label": "recordType",
            "offset": 0,
            "slot": "0",
            "type": "t_string_storage"
          },
          {
            "astId": 1771,
            "contract": "contracts/Registry.sol:Registry",
            "label": "key",
            "offset": 0,
            "slot": "1",
            "type": "t_string_storage"
          },
          {
            "astId": 1773,
            "contract": "contracts/Registry.sol:Registry",
            "label": "value",
            "offset": 0,
            "slot": "2",
            "type": "t_bytes_storage"
          }
        ],
        "numberOfBytes": "96"
      },
      "t_uint256": {
        "encoding": "inplace",
        "label": "uint256",
        "numberOfBytes": "32"
      }
    }
  }
}