{
  "_format": "hh-sol-artifact-1",
  "contractName": "Domains",
  "sourceName": "contracts/Domains.sol",
  "abi": [
    {
      "inputs": [
        {
          "internalType": "string",
          "name": "_tld",
          "type": "string"
        }
      ],
      "stateMutability": "payable",
      "type": "constructor"
    },
    {
      "inputs": [],
      "name": "AlreadyRegistered",
      "type": "error"
    },
    {
      "inputs": [
        {
          "internalType": "string",
          "name": "name",
          "type": "string"
        }
      ],
      "name": "InvalidName",
      "type": "error"
    },
    {
      "inputs": [],
      "name": "Unauthorized",
      "type": "error"
    },
    {
      "anonymous": false,
      "inputs": [
        {
          "indexed": true,
          "internalType": "address",
          "name": "owner",
          "type": "address"
        },
        {
          "indexed": true,
          "internalType": "address",
          "name": "approved",
          "type": "address"
        },
        {
          "indexed": true,
          "internalType": "uint256",
          "name": "tokenId",
          "type": "uint256"
        }
      ],
      "name": "Approval",
      "type": "event"
    },
    {
      "anonymous": false,
      "inputs": [
        {
          "indexed": true,
          "internalType": "address",
          "name": "owner",
          "type": "address"
        },
        {
          "indexed": true,
          "internalType": "address",
          "name": "operator",
          "type": "address"
        },
        {
          "indexed": false,
          "internalType": "bool",
          "name": "approved",
          "type": "bool"
        }
      ],
      "name": "ApprovalForAll",
      "type": "event"
    },
    {
      "anonymous": false,
      "inputs": [
        {
          "indexed": true,
          "internalType": "address",
          "name": "from",
          "type": "address"
        },
        {
          "indexed": true,
          "internalType": "address",
          "name": "to",
          "type": "address"
        },
        {
          "indexed": true,
          "internalType": "uint256",
          "name": "tokenId",
          "type": "uint256"
        }
      ],
      "name": "Transfer",
      "type": "event"
    },
    {
      "inputs": [
        {
          "internalType": "address",
          "name": "to",
          "type": "address"
        },
        {
          "internalType": "uint256",
          "name": "tokenId",
          "type": "uint256"
        }
      ],
      "name": "approve",
      "outputs": [],
      "stateMutability": "nonpayable",
      "type": "function"
    },
    {
      "inputs": [
        {
          "internalType": "address",
          "name": "owner",
          "type": "address"
        }
      ],
      "name": "balanceOf",
      "outputs": [
        {
          "internalType": "uint256",
          "name": "",
          "type": "uint256"
        }
      ],
      "stateMutability": "view",
      "type": "function"
    },
    {
      "inputs": [
        {
          "internalType": "string",
          "name": "",
          "type": "string"
        }
      ],
      "name": "domains",
      "outputs": [
        {
          "internalType": "address",
          "name": "",
          "type": "address"
        }
      ],
      "stateMutability": "view",
      "type": "function"
    },
    {
      "inputs": [
        {
          "internalType": "string",
          "name": "domainName",
          "type": "string"
        }
      ],
      "name": "getAddress",
      "outputs": [
        {
          "internalType": "address",
          "name": "",
          "type": "address"
        }
      ],
      "stateMutability": "view",
      "type": "function"
    },
    {
      "inputs": [],
      "name": "getAllDomainNames",
      "outputs": [
        {
          "internalType": "string[]",
          "name": "",
          "type": "string[]"
        }
      ],
      "stateMutability": "view",
      "type": "function"
    },
    {
      "inputs": [
        {
          "internalType": "uint256",
          "name": "tokenId",
          "type": "uint256"
        }
      ],
      "name": "getApproved",
      "outputs": [
        {
          "internalType": "address",
          "name": "",
          "type": "address"
        }
      ],
      "stateMutability": "view",
      "type": "function"
    },
    {
      "inputs": [
        {
          "internalType": "string",
          "name": "domainName",
          "type": "string"
        }
      ],
      "name": "getRecord",
      "outputs": [
        {
          "internalType": "string",
          "name": "",
          "type": "string"
        }
      ],
      "stateMutability": "view",
      "type": "function"
    },
    {
      "inputs": [
        {
          "internalType": "address",
          "name": "owner",
          "type": "address"
        },
        {
          "internalType": "address",
          "name": "operator",
          "type": "address"
        }
      ],
      "name": "isApprovedForAll",
      "outputs": [
        {
          "internalType": "bool",
          "name": "",
          "type": "bool"
        }
      ],
      "stateMutability": "view",
      "type": "function"
    },
    {
      "inputs": [
        {
          "internalType": "string",
          "name": "domainName",
          "type": "string"
        }
      ],
      "name": "isValidDomainName",
      "outputs": [
        {
          "internalType": "bool",
          "name": "",
          "type": "bool"
        }
      ],
      "stateMutability": "pure",
      "type": "function"
    },
    {
      "inputs": [],
      "name": "name",
      "outputs": [
        {
          "internalType": "string",
          "name": "",
          "type": "string"
        }
      ],
      "stateMutability": "view",
      "type": "function"
    },
    {
      "inputs": [
        {
          "internalType": "uint256",
          "name": "",
          "type": "uint256"
        }
      ],
      "name": "names",
      "outputs": [
        {
          "internalType": "string",
          "name": "",
          "type": "string"
        }
      ],
      "stateMutability": "view",
      "type": "function"
    },
    {
      "inputs": [],
      "name": "owner",
      "outputs": [
        {
          "internalType": "address payable",
          "name": "",
          "type": "address"
        }
      ],
      "stateMutability": "view",
      "type": "function"
    },
    {
      "inputs": [
        {
          "internalType": "uint256",
          "name": "tokenId",
          "type": "uint256"
        }
      ],
      "name": "ownerOf",
      "outputs": [
        {
          "internalType": "address",
          "name": "",
          "type": "address"
        }
      ],
      "stateMutability": "view",
      "type": "function"
    },
    {
      "inputs": [
        {
          "internalType": "string",
          "name": "domainName",
          "type": "string"
        }
      ],
      "name": "priceToRegisterDomain",
      "outputs": [
        {
          "internalType": "uint256",
          "name": "",
          "type": "uint256"
        }
      ],
      "stateMutability": "pure",
      "type": "function"
    },
    {
      "inputs": [
        {
          "internalType": "string",
          "name": "",
          "type": "string"
        }
      ],
      "name": "records",
      "outputs": [
        {
          "internalType": "string",
          "name": "",
          "type": "string"
        }
      ],
      "stateMutability": "view",
      "type": "function"
    },
    {
      "inputs": [
        {
          "internalType": "string",
          "name": "domainName",
          "type": "string"
        }
      ],
      "name": "register",
      "outputs": [],
      "stateMutability": "payable",
      "type": "function"
    },
    {
      "inputs": [
        {
          "internalType": "address",
          "name": "from",
          "type": "address"
        },
        {
          "internalType": "address",
          "name": "to",
          "type": "address"
        },
        {
          "internalType": "uint256",
          "name": "tokenId",
          "type": "uint256"
        }
      ],
      "name": "safeTransferFrom",
      "outputs": [],
      "stateMutability": "nonpayable",
      "type": "function"
    },
    {
      "inputs": [
        {
          "internalType": "address",
          "name": "from",
          "type": "address"
        },
        {
          "internalType": "address",
          "name": "to",
          "type": "address"
        },
        {
          "internalType": "uint256",
          "name": "tokenId",
          "type": "uint256"
        },
        {
          "internalType": "bytes",
          "name": "_data",
          "type": "bytes"
        }
      ],
      "name": "safeTransferFrom",
      "outputs": [],
      "stateMutability": "nonpayable",
      "type": "function"
    },
    {
      "inputs": [
        {
          "internalType": "address",
          "name": "operator",
          "type": "address"
        },
        {
          "internalType": "bool",
          "name": "approved",
          "type": "bool"
        }
      ],
      "name": "setApprovalForAll",
      "outputs": [],
      "stateMutability": "nonpayable",
      "type": "function"
    },
    {
      "inputs": [
        {
          "internalType": "string",
          "name": "domainName",
          "type": "string"
        },
        {
          "internalType": "string",
          "name": "record",
          "type": "string"
        }
      ],
      "name": "setRecord",
      "outputs": [],
      "stateMutability": "nonpayable",
      "type": "function"
    },
    {
      "inputs": [
        {
          "internalType": "bytes4",
          "name": "interfaceId",
          "type": "bytes4"
        }
      ],
      "name": "supportsInterface",
      "outputs": [
        {
          "internalType": "bool",
          "name": "",
          "type": "bool"
        }
      ],
      "stateMutability": "view",
      "type": "function"
    },
    {
      "inputs": [],
      "name": "symbol",
      "outputs": [
        {
          "internalType": "string",
          "name": "",
          "type": "string"
        }
      ],
      "stateMutability": "view",
      "type": "function"
    },
    {
      "inputs": [],
      "name": "tld",
      "outputs": [
        {
          "internalType": "string",
          "name": "",
          "type": "string"
        }
      ],
      "stateMutability": "view",
      "type": "function"
    },
    {
      "inputs": [
        {
          "internalType": "uint256",
          "name": "tokenId",
          "type": "uint256"
        }
      ],
      "name": "tokenURI",
      "outputs": [
        {
          "internalType": "string",
          "name": "",
          "type": "string"
        }
      ],
      "stateMutability": "view",
      "type": "function"
    },
    {
      "inputs": [
        {
          "internalType": "address",
          "name": "from",
          "type": "address"
        },
        {
          "internalType": "address",
          "name": "to",
          "type": "address"
        },
        {
          "internalType": "uint256",
          "name": "tokenId",
          "type": "uint256"
        }
      ],
      "name": "transferFrom",
      "outputs": [],
      "stateMutability": "nonpayable",
      "type": "function"
    },
    {
      "inputs": [],
      "name": "withdraw",
      "outputs": [],
      "stateMutability": "nonpayable",
      "type": "function"
    }
  ],
  "bytecode": "0x6080604052604051806108a0016040528061086b81526020016200581e61086b9139600d9080519060200190620000389291906200046e565b506040518060400160405280600d81526020017f3c2f746578743e3c2f7376673e00000000000000000000000000000000000000815250600e9080519060200190620000869291906200046e565b5060405162006089380380620060898339818101604052810190620000ac9190620006bb565b6040518060400160405280601481526020017f506f6c79676f6e204e616d6520536572766963650000000000000000000000008152506040518060400160405280600381526020017f504e5300000000000000000000000000000000000000000000000000000000008152508160009080519060200190620001309291906200046e565b508060019080519060200190620001499291906200046e565b50505033600c60006101000a81548173ffffffffffffffffffffffffffffffffffffffff021916908373ffffffffffffffffffffffffffffffffffffffff16021790555080600b9080519060200190620001a59291906200046e565b50620002846040518060400160405280601881526020017f2573206e616d652073657276696365206465706c6f7965640000000000000000815250600b8054620001ef906200073b565b80601f01602080910402602001604051908101604052809291908181526020018280546200021d906200073b565b80156200026e5780601f1062000242576101008083540402835291602001916200026e565b820191906000526020600020905b8154815290600101906020018083116200025057829003601f168201915b5050505050620002f960201b62001c111760201c565b620002f26040518060400160405280600981526020017f4f776e65723a2025730000000000000000000000000000000000000000000000815250600c60009054906101000a900473ffffffffffffffffffffffffffffffffffffffff166200039f60201b62001cad1760201c565b5062000882565b6200039b828260405160240162000312929190620007ce565b6040516020818303038152906040527f4b5c4277000000000000000000000000000000000000000000000000000000007bffffffffffffffffffffffffffffffffffffffffffffffffffffffff19166020820180517bffffffffffffffffffffffffffffffffffffffffffffffffffffffff83818316178352505050506200044560201b60201c565b5050565b620004418282604051602401620003b89291906200084e565b6040516020818303038152906040527f319af333000000000000000000000000000000000000000000000000000000007bffffffffffffffffffffffffffffffffffffffffffffffffffffffff19166020820180517bffffffffffffffffffffffffffffffffffffffffffffffffffffffff83818316178352505050506200044560201b60201c565b5050565b60008151905060006a636f6e736f6c652e6c6f679050602083016000808483855afa5050505050565b8280546200047c906200073b565b90600052602060002090601f016020900481019282620004a05760008555620004ec565b82601f10620004bb57805160ff1916838001178555620004ec565b82800160010185558215620004ec579182015b82811115620004eb578251825591602001919060010190620004ce565b5b509050620004fb9190620004ff565b5090565b5b808211156200051a57600081600090555060010162000500565b5090565b6000604051905090565b600080fd5b600080fd5b600080fd5b600080fd5b6000601f19601f8301169050919050565b7f4e487b7100000000000000000000000000000000000000000000000000000000600052604160045260246000fd5b62000587826200053c565b810181811067ffffffffffffffff82111715620005a957620005a86200054d565b5b80604052505050565b6000620005be6200051e565b9050620005cc82826200057c565b919050565b600067ffffffffffffffff821115620005ef57620005ee6200054d565b5b620005fa826200053c565b9050602081019050919050565b60005b83811015620006275780820151818401526020810190506200060a565b8381111562000637576000848401525b50505050565b6000620006546200064e84620005d1565b620005b2565b90508281526020810184848401111562000673576200067262000537565b5b6200068084828562000607565b509392505050565b600082601f830112620006a0576200069f62000532565b5b8151620006b28482602086016200063d565b91505092915050565b600060208284031215620006d457620006d362000528565b5b600082015167ffffffffffffffff811115620006f557620006f46200052d565b5b620007038482850162000688565b91505092915050565b7f4e487b7100000000000000000000000000000000000000000000000000000000600052602260045260246000fd5b600060028204905060018216806200075457607f821691505b602082108114156200076b576200076a6200070c565b5b50919050565b600081519050919050565b600082825260208201905092915050565b60006200079a8262000771565b620007a681856200077c565b9350620007b881856020860162000607565b620007c3816200053c565b840191505092915050565b60006040820190508181036000830152620007ea81856200078d565b905081810360208301526200080081846200078d565b90509392505050565b600073ffffffffffffffffffffffffffffffffffffffff82169050919050565b6000620008368262000809565b9050919050565b620008488162000829565b82525050565b600060408201905081810360008301526200086a81856200078d565b90506200087b60208301846200083d565b9392505050565b614f8c80620008926000396000f3fe6080604052600436106101815760003560e01c80636352211e116100d1578063b88d4fde1161008a578063c87b56dd11610064578063c87b56dd146105cc578063d3c594a514610609578063e985e9c514610646578063f2c298be1461068357610181565b8063b88d4fde1461053d578063bf40fac114610566578063c1880a98146105a357610181565b80636352211e1461041957806365a3ff811461045657806370a08231146104815780638da5cb5b146104be57806395d89b41146104e9578063a22cb4651461051457610181565b806323b872dd1161013e5780633ccfd60b116101185780633ccfd60b1461035f57806342842e0e146103765780634622ab031461039f578063541e771d146103dc57610181565b806323b872dd146102ce57806326449235146102f75780632d5514321461033457610181565b806301ffc9a71461018657806306fdde03146101c3578063081812fc146101ee578063095ea7b31461022b57806311dd88451461025457806321a33ba814610291575b600080fd5b34801561019257600080fd5b506101ad60048036038101906101a8919061324e565b61069f565b6040516101ba9190613296565b60405180910390f35b3480156101cf57600080fd5b506101d8610781565b6040516101e5919061334a565b60405180910390f35b3480156101fa57600080fd5b50610215600480360381019061021091906133a2565b610813565b6040516102229190613410565b60405180910390f35b34801561023757600080fd5b50610252600480360381019061024d9190613457565b610898565b005b34801561026057600080fd5b5061027b600480360381019061027691906134fc565b6109b0565b604051610288919061334a565b60405180910390f35b34801561029d57600080fd5b506102b860048036038101906102b391906134fc565b610a63565b6040516102c59190613296565b60405180910390f35b3480156102da57600080fd5b506102f560048036038101906102f09190613549565b610ad0565b005b34801561030357600080fd5b5061031e600480360381019061031991906136cc565b610b30565b60405161032b9190613410565b60405180910390f35b34801561034057600080fd5b50610349610b79565b604051610356919061334a565b60405180910390f35b34801561036b57600080fd5b50610374610c07565b005b34801561038257600080fd5b5061039d60048036038101906103989190613549565b610d43565b005b3480156103ab57600080fd5b506103c660048036038101906103c191906133a2565b610d63565b6040516103d3919061334a565b60405180910390f35b3480156103e857600080fd5b5061040360048036038101906103fe91906136cc565b610e03565b604051610410919061334a565b60405180910390f35b34801561042557600080fd5b50610440600480360381019061043b91906133a2565b610eb9565b60405161044d9190613410565b60405180910390f35b34801561046257600080fd5b5061046b610f6b565b6040516104789190613821565b60405180910390f35b34801561048d57600080fd5b506104a860048036038101906104a39190613843565b611149565b6040516104b5919061387f565b60405180910390f35b3480156104ca57600080fd5b506104d3611201565b6040516104e091906138bb565b60405180910390f35b3480156104f557600080fd5b506104fe611227565b60405161050b919061334a565b60405180910390f35b34801561052057600080fd5b5061053b60048036038101906105369190613902565b6112b9565b005b34801561054957600080fd5b50610564600480360381019061055f91906139e3565b6112cf565b005b34801561057257600080fd5b5061058d600480360381019061058891906134fc565b611331565b60405161059a9190613410565b60405180910390f35b3480156105af57600080fd5b506105ca60048036038101906105c59190613a66565b61137c565b005b3480156105d857600080fd5b506105f360048036038101906105ee91906133a2565b611507565b604051610600919061334a565b60405180910390f35b34801561061557600080fd5b50610630600480360381019061062b91906134fc565b611659565b60405161063d919061387f565b60405180910390f35b34801561065257600080fd5b5061066d60048036038101906106689190613ae7565b6116ff565b60405161067a9190613296565b60405180910390f35b61069d600480360381019061069891906134fc565b611793565b005b60007f80ac58cd000000000000000000000000000000000000000000000000000000007bffffffffffffffffffffffffffffffffffffffffffffffffffffffff1916827bffffffffffffffffffffffffffffffffffffffffffffffffffffffff1916148061076a57507f5b5e139f000000000000000000000000000000000000000000000000000000007bffffffffffffffffffffffffffffffffffffffffffffffffffffffff1916827bffffffffffffffffffffffffffffffffffffffffffffffffffffffff1916145b8061077a575061077982611d49565b5b9050919050565b60606000805461079090613b56565b80601f01602080910402602001604051908101604052809291908181526020018280546107bc90613b56565b80156108095780601f106107de57610100808354040283529160200191610809565b820191906000526020600020905b8154815290600101906020018083116107ec57829003601f168201915b5050505050905090565b600061081e82611db3565b61085d576040517f08c379a000000000000000000000000000000000000000000000000000000000815260040161085490613bfa565b60405180910390fd5b6004600083815260200190815260200160002060009054906101000a900473ffffffffffffffffffffffffffffffffffffffff169050919050565b60006108a382610eb9565b90508073ffffffffffffffffffffffffffffffffffffffff168373ffffffffffffffffffffffffffffffffffffffff161415610914576040517f08c379a000000000000000000000000000000000000000000000000000000000815260040161090b90613c8c565b60405180910390fd5b8073ffffffffffffffffffffffffffffffffffffffff16610933611e1f565b73ffffffffffffffffffffffffffffffffffffffff16148061096257506109618161095c611e1f565b6116ff565b5b6109a1576040517f08c379a000000000000000000000000000000000000000000000000000000000815260040161099890613d1e565b60405180910390fd5b6109ab8383611e27565b505050565b6060600883836040516109c4929190613d6e565b908152602001604051809103902080546109dd90613b56565b80601f0160208091040260200160405190810160405280929190818152602001828054610a0990613b56565b8015610a565780601f10610a2b57610100808354040283529160200191610a56565b820191906000526020600020905b815481529060010190602001808311610a3957829003601f168201915b5050505050905092915050565b600080610ab384848080601f016020809104026020016040519081016040528093929190818152602001838380828437600081840152601f19601f82011690508083019250505050505050611ee0565b905060038110158015610ac7575060408111155b91505092915050565b610ae1610adb611e1f565b82612095565b610b20576040517f08c379a0000000000000000000000000000000000000000000000000000000008152600401610b1790613df9565b60405180910390fd5b610b2b838383612173565b505050565b6007818051602081018201805184825260208301602085012081835280955050505050506000915054906101000a900473ffffffffffffffffffffffffffffffffffffffff1681565b600b8054610b8690613b56565b80601f0160208091040260200160405190810160405280929190818152602001828054610bb290613b56565b8015610bff5780601f10610bd457610100808354040283529160200191610bff565b820191906000526020600020905b815481529060010190602001808311610be257829003601f168201915b505050505081565b600c60009054906101000a900473ffffffffffffffffffffffffffffffffffffffff1673ffffffffffffffffffffffffffffffffffffffff163373ffffffffffffffffffffffffffffffffffffffff1614610c8e576040517f82b4290000000000000000000000000000000000000000000000000000000000815260040160405180910390fd5b600047905060003373ffffffffffffffffffffffffffffffffffffffff1682604051610cb990613e4a565b60006040518083038185875af1925050503d8060008114610cf6576040519150601f19603f3d011682016040523d82523d6000602084013e610cfb565b606091505b5050905080610d3f576040517f08c379a0000000000000000000000000000000000000000000000000000000008152600401610d3690613eab565b60405180910390fd5b5050565b610d5e838383604051806020016040528060008152506112cf565b505050565b60096020528060005260406000206000915090508054610d8290613b56565b80601f0160208091040260200160405190810160405280929190818152602001828054610dae90613b56565b8015610dfb5780601f10610dd057610100808354040283529160200191610dfb565b820191906000526020600020905b815481529060010190602001808311610dde57829003601f168201915b505050505081565b6008818051602081018201805184825260208301602085012081835280955050505050506000915090508054610e3890613b56565b80601f0160208091040260200160405190810160405280929190818152602001828054610e6490613b56565b8015610eb15780601f10610e8657610100808354040283529160200191610eb1565b820191906000526020600020905b815481529060010190602001808311610e9457829003601f168201915b505050505081565b6000806002600084815260200190815260200160002060009054906101000a900473ffffffffffffffffffffffffffffffffffffffff169050600073ffffffffffffffffffffffffffffffffffffffff168173ffffffffffffffffffffffffffffffffffffffff161415610f62576040517f08c379a0000000000000000000000000000000000000000000000000000000008152600401610f5990613f3d565b60405180910390fd5b80915050919050565b6060610fab6040518060400160405280601f81526020017f47657474696e6720616c6c206e616d65732066726f6d20636f6e7472616374008152506123da565b6000610fb7600a612473565b67ffffffffffffffff811115610fd057610fcf6135a1565b5b60405190808252806020026020018201604052801561100357816020015b6060815260200190600190039081610fee5790505b50905060005b611013600a612473565b8110156111415760096000828152602001908152602001600020805461103890613b56565b80601f016020809104026020016040519081016040528092919081815260200182805461106490613b56565b80156110b15780601f10611086576101008083540402835291602001916110b1565b820191906000526020600020905b81548152906001019060200180831161109457829003601f168201915b50505050508282815181106110c9576110c8613f5d565b5b602002602001018190525061112e6040518060400160405280601981526020017f4e616d6520666f7220746f6b656e4944202564206973202573000000000000008152508284848151811061112157611120613f5d565b5b6020026020010151612481565b808061113990613fbb565b915050611009565b508091505090565b60008073ffffffffffffffffffffffffffffffffffffffff168273ffffffffffffffffffffffffffffffffffffffff1614156111ba576040517f08c379a00000000000000000000000000000000000000000000000000000000081526004016111b190614076565b60405180910390fd5b600360008373ffffffffffffffffffffffffffffffffffffffff1673ffffffffffffffffffffffffffffffffffffffff168152602001908152602001600020549050919050565b600c60009054906101000a900473ffffffffffffffffffffffffffffffffffffffff1681565b60606001805461123690613b56565b80601f016020809104026020016040519081016040528092919081815260200182805461126290613b56565b80156112af5780601f10611284576101008083540402835291602001916112af565b820191906000526020600020905b81548152906001019060200180831161129257829003601f168201915b5050505050905090565b6112cb6112c4611e1f565b8383612520565b5050565b6112e06112da611e1f565b83612095565b61131f576040517f08c379a000000000000000000000000000000000000000000000000000000000815260040161131690613df9565b60405180910390fd5b61132b8484848461268d565b50505050565b600060078383604051611345929190613d6e565b908152602001604051809103902060009054906101000a900473ffffffffffffffffffffffffffffffffffffffff16905092915050565b838360078282604051611390929190613d6e565b908152602001604051809103902060009054906101000a900473ffffffffffffffffffffffffffffffffffffffff1673ffffffffffffffffffffffffffffffffffffffff163373ffffffffffffffffffffffffffffffffffffffff1614611423576040517f82b4290000000000000000000000000000000000000000000000000000000000815260040160405180910390fd5b838360088888604051611437929190613d6e565b908152602001604051809103902091906114529291906130b9565b506114ff604051806060016040528060228152602001614e8b602291393388888080601f016020809104026020016040519081016040528093929190818152602001838380828437600081840152601f19601f8201169050808301925050505050505087878080601f016020809104026020016040519081016040528093929190818152602001838380828437600081840152601f19601f820116905080830192505050505050506126e9565b505050505050565b606061151282611db3565b611551576040517f08c379a000000000000000000000000000000000000000000000000000000000815260040161154890614108565b60405180910390fd5b600060066000848152602001908152602001600020805461157190613b56565b80601f016020809104026020016040519081016040528092919081815260200182805461159d90613b56565b80156115ea5780601f106115bf576101008083540402835291602001916115ea565b820191906000526020600020905b8154815290600101906020018083116115cd57829003601f168201915b5050505050905060006115fb61278b565b9050600081511415611611578192505050611654565b60008251111561164657808260405160200161162e929190614159565b60405160208183030381529060405292505050611654565b61164f846127a2565b925050505b919050565b6000806116a984848080601f016020809104026020016040519081016040528093929190818152602001838380828437600081840152601f19601f82011690508083019250505050505050611ee0565b9050600281116116b857600080fd5b6103e86116ec6002836116cb91906141ac565b6706f05b59d3b200006116de91906141ac565b67016345785d8a0000612849565b6116f691906141ac565b91505092915050565b6000600560008473ffffffffffffffffffffffffffffffffffffffff1673ffffffffffffffffffffffffffffffffffffffff16815260200190815260200160002060008373ffffffffffffffffffffffffffffffffffffffff1673ffffffffffffffffffffffffffffffffffffffff16815260200190815260200160002060009054906101000a900460ff16905092915050565b600073ffffffffffffffffffffffffffffffffffffffff16600783836040516117bd929190613d6e565b908152602001604051809103902060009054906101000a900473ffffffffffffffffffffffffffffffffffffffff1673ffffffffffffffffffffffffffffffffffffffff1614611839576040517f3a81d6fc00000000000000000000000000000000000000000000000000000000815260040160405180910390fd5b6118438282610a63565b6118865781816040517f7f19f48d00000000000000000000000000000000000000000000000000000000815260040161187d92919061420a565b60405180910390fd5b60006118928383611659565b9050803410156118d7576040517f08c379a00000000000000000000000000000000000000000000000000000000081526004016118ce906142a0565b60405180910390fd5b60008383600b6040516020016118ef939291906143a0565b60405160208183030381529060405290506000600d82600e604051602001611919939291906143d1565b60405160208183030381529060405290506000611936600a612473565b9050600061198787878080601f016020809104026020016040519081016040528093929190818152602001838380828437600081840152601f19601f82011690508083019250505050505050611ee0565b9050600061199482612863565b9050611a88604051806060016040528060318152602001614ead6031913989898080601f016020809104026020016040519081016040528093929190818152602001838380828437600081840152601f19601f82011690508083019250505050505050600b8054611a0490613b56565b80601f0160208091040260200160405190810160405280929190818152602001828054611a3090613b56565b8015611a7d5780601f10611a5257610100808354040283529160200191611a7d565b820191906000526020600020905b815481529060010190602001808311611a6057829003601f168201915b5050505050866129c4565b6000611abe86611a9787612a66565b84604051602001611aaa9392919061457e565b604051602081830303815290604052612a66565b9050600081604051602001611ad39190614627565b6040516020818303038152906040529050611b05604051806060016040528060398152602001614e52603991396123da565b611b446040518060400160405280600e81526020017f46696e616c20746f6b656e55524900000000000000000000000000000000000081525082611c11565b611b65604051806060016040528060398152602001614ede603991396123da565b611b6f3386612bfe565b611b798582612c1c565b3360078b8b604051611b8c929190613d6e565b908152602001604051809103902060006101000a81548173ffffffffffffffffffffffffffffffffffffffff021916908373ffffffffffffffffffffffffffffffffffffffff1602179055508989600960008881526020019081526020016000209190611bfa9291906130b9565b50611c05600a612c90565b50505050505050505050565b611ca98282604051602401611c27929190614649565b6040516020818303038152906040527f4b5c4277000000000000000000000000000000000000000000000000000000007bffffffffffffffffffffffffffffffffffffffffffffffffffffffff19166020820180517bffffffffffffffffffffffffffffffffffffffffffffffffffffffff8381831617835250505050612ca6565b5050565b611d458282604051602401611cc3929190614680565b6040516020818303038152906040527f319af333000000000000000000000000000000000000000000000000000000007bffffffffffffffffffffffffffffffffffffffffffffffffffffffff19166020820180517bffffffffffffffffffffffffffffffffffffffffffffffffffffffff8381831617835250505050612ca6565b5050565b60007f01ffc9a7000000000000000000000000000000000000000000000000000000007bffffffffffffffffffffffffffffffffffffffffffffffffffffffff1916827bffffffffffffffffffffffffffffffffffffffffffffffffffffffff1916149050919050565b60008073ffffffffffffffffffffffffffffffffffffffff166002600084815260200190815260200160002060009054906101000a900473ffffffffffffffffffffffffffffffffffffffff1673ffffffffffffffffffffffffffffffffffffffff1614159050919050565b600033905090565b816004600083815260200190815260200160002060006101000a81548173ffffffffffffffffffffffffffffffffffffffff021916908373ffffffffffffffffffffffffffffffffffffffff160217905550808273ffffffffffffffffffffffffffffffffffffffff16611e9a83610eb9565b73ffffffffffffffffffffffffffffffffffffffff167f8c5be1e5ebec7d5bd14f71427d1e84f3dd0314c0f7b2291e5b200ac8c7c3b92560405160405180910390a45050565b60008060008084519050600092505b8082101561208a576000858381518110611f0c57611f0b613f5d565b5b602001015160f81c60f81b9050608060f81b817effffffffffffffffffffffffffffffffffffffffffffffffffffffffffffff19161015611f5b57600183611f5491906146b0565b9250612076565b60e060f81b817effffffffffffffffffffffffffffffffffffffffffffffffffffffffffffff19161015611f9d57600283611f9691906146b0565b9250612075565b60f060f81b817effffffffffffffffffffffffffffffffffffffffffffffffffffffffffffff19161015611fdf57600383611fd891906146b0565b9250612074565b60f8801b817effffffffffffffffffffffffffffffffffffffffffffffffffffffffffffff191610156120205760048361201991906146b0565b9250612073565b60fc60f81b817effffffffffffffffffffffffffffffffffffffffffffffffffffffffffffff191610156120625760058361205b91906146b0565b9250612072565b60068361206f91906146b0565b92505b5b5b5b5b50828061208290613fbb565b935050611eef565b829350505050919050565b60006120a082611db3565b6120df576040517f08c379a00000000000000000000000000000000000000000000000000000000081526004016120d690614778565b60405180910390fd5b60006120ea83610eb9565b90508073ffffffffffffffffffffffffffffffffffffffff168473ffffffffffffffffffffffffffffffffffffffff16148061215957508373ffffffffffffffffffffffffffffffffffffffff1661214184610813565b73ffffffffffffffffffffffffffffffffffffffff16145b8061216a575061216981856116ff565b5b91505092915050565b8273ffffffffffffffffffffffffffffffffffffffff1661219382610eb9565b73ffffffffffffffffffffffffffffffffffffffff16146121e9576040517f08c379a00000000000000000000000000000000000000000000000000000000081526004016121e09061480a565b60405180910390fd5b600073ffffffffffffffffffffffffffffffffffffffff168273ffffffffffffffffffffffffffffffffffffffff161415612259576040517f08c379a00000000000000000000000000000000000000000000000000000000081526004016122509061489c565b60405180910390fd5b612264838383612ccf565b61226f600082611e27565b6001600360008573ffffffffffffffffffffffffffffffffffffffff1673ffffffffffffffffffffffffffffffffffffffff16815260200190815260200160002060008282546122bf91906148bc565b925050819055506001600360008473ffffffffffffffffffffffffffffffffffffffff1673ffffffffffffffffffffffffffffffffffffffff168152602001908152602001600020600082825461231691906146b0565b92505081905550816002600083815260200190815260200160002060006101000a81548173ffffffffffffffffffffffffffffffffffffffff021916908373ffffffffffffffffffffffffffffffffffffffff160217905550808273ffffffffffffffffffffffffffffffffffffffff168473ffffffffffffffffffffffffffffffffffffffff167fddf252ad1be2c89b69c2b068fc378daa952ba7f163c4a11628f55a4df523b3ef60405160405180910390a46123d5838383612cd4565b505050565b612470816040516024016123ee919061334a565b6040516020818303038152906040527f41304fac000000000000000000000000000000000000000000000000000000007bffffffffffffffffffffffffffffffffffffffffffffffffffffffff19166020820180517bffffffffffffffffffffffffffffffffffffffffffffffffffffffff8381831617835250505050612ca6565b50565b600081600001549050919050565b61251b838383604051602401612499939291906148f0565b6040516020818303038152906040527fa3f5c739000000000000000000000000000000000000000000000000000000007bffffffffffffffffffffffffffffffffffffffffffffffffffffffff19166020820180517bffffffffffffffffffffffffffffffffffffffffffffffffffffffff8381831617835250505050612ca6565b505050565b8173ffffffffffffffffffffffffffffffffffffffff168373ffffffffffffffffffffffffffffffffffffffff16141561258f576040517f08c379a000000000000000000000000000000000000000000000000000000000815260040161258690614981565b60405180910390fd5b80600560008573ffffffffffffffffffffffffffffffffffffffff1673ffffffffffffffffffffffffffffffffffffffff16815260200190815260200160002060008473ffffffffffffffffffffffffffffffffffffffff1673ffffffffffffffffffffffffffffffffffffffff16815260200190815260200160002060006101000a81548160ff0219169083151502179055508173ffffffffffffffffffffffffffffffffffffffff168373ffffffffffffffffffffffffffffffffffffffff167f17307eab39ab6107e8899845ad3d59bd9653f200f220920489ca2b5937696c31836040516126809190613296565b60405180910390a3505050565b612698848484612173565b6126a484848484612cd9565b6126e3576040517f08c379a00000000000000000000000000000000000000000000000000000000081526004016126da90614a13565b60405180910390fd5b50505050565b612785848484846040516024016127039493929190614a33565b6040516020818303038152906040527f245986f2000000000000000000000000000000000000000000000000000000007bffffffffffffffffffffffffffffffffffffffffffffffffffffffff19166020820180517bffffffffffffffffffffffffffffffffffffffffffffffffffffffff8381831617835250505050612ca6565b50505050565b606060405180602001604052806000815250905090565b60606127ad82611db3565b6127ec576040517f08c379a00000000000000000000000000000000000000000000000000000000081526004016127e390614aff565b60405180910390fd5b60006127f661278b565b905060008151116128165760405180602001604052806000815250612841565b8061282084612863565b604051602001612831929190614159565b6040516020818303038152906040525b915050919050565b600081831015612859578161285b565b825b905092915050565b606060008214156128ab576040518060400160405280600181526020017f300000000000000000000000000000000000000000000000000000000000000081525090506129bf565b600082905060005b600082146128dd5780806128c690613fbb565b915050600a826128d691906141ac565b91506128b3565b60008167ffffffffffffffff8111156128f9576128f86135a1565b5b6040519080825280601f01601f19166020018201604052801561292b5781602001600182028036833780820191505090505b5090505b600085146129b85760018261294491906148bc565b9150600a856129539190614b1f565b603061295f91906146b0565b60f81b81838151811061297557612974613f5d565b5b60200101907effffffffffffffffffffffffffffffffffffffffffffffffffffffffffffff1916908160001a905350600a856129b191906141ac565b945061292f565b8093505050505b919050565b612a60848484846040516024016129de9493929190614b50565b6040516020818303038152906040527f9fd009f5000000000000000000000000000000000000000000000000000000007bffffffffffffffffffffffffffffffffffffffffffffffffffffffff19166020820180517bffffffffffffffffffffffffffffffffffffffffffffffffffffffff8381831617835250505050612ca6565b50505050565b60606000825190506000811415612a8f5760405180602001604052806000815250915050612bf9565b60006003600283612aa091906146b0565b612aaa91906141ac565b6004612ab69190614baa565b90506000602082612ac791906146b0565b67ffffffffffffffff811115612ae057612adf6135a1565b5b6040519080825280601f01601f191660200182016040528015612b125781602001600182028036833780820191505090505b5090506000604051806060016040528060408152602001614f17604091399050600181016020830160005b86811015612bb65760038101905062ffffff818a015116603f8160121c168401518060081b905060ff603f83600c1c1686015116810190508060081b905060ff603f8360061c1686015116810190508060081b905060ff603f831686015116810190508060e01b90508084526004840193505050612b3d565b506003860660018114612bd05760028114612be057612beb565b613d3d60f01b6002830352612beb565b603d60f81b60018303525b508484525050819450505050505b919050565b612c18828260405180602001604052806000815250612e61565b5050565b612c2582611db3565b612c64576040517f08c379a0000000000000000000000000000000000000000000000000000000008152600401612c5b90614c76565b60405180910390fd5b80600660008481526020019081526020016000209080519060200190612c8b92919061313f565b505050565b6001816000016000828254019250508190555050565b60008151905060006a636f6e736f6c652e6c6f679050602083016000808483855afa5050505050565b505050565b505050565b6000612cfa8473ffffffffffffffffffffffffffffffffffffffff16612ebc565b15612e54578373ffffffffffffffffffffffffffffffffffffffff1663150b7a02612d23611e1f565b8786866040518563ffffffff1660e01b8152600401612d459493929190614ceb565b6020604051808303816000875af1925050508015612d8157506040513d601f19601f82011682018060405250810190612d7e9190614d4c565b60015b612e04573d8060008114612db1576040519150601f19603f3d011682016040523d82523d6000602084013e612db6565b606091505b50600081511415612dfc576040517f08c379a0000000000000000000000000000000000000000000000000000000008152600401612df390614a13565b60405180910390fd5b805181602001fd5b63150b7a0260e01b7bffffffffffffffffffffffffffffffffffffffffffffffffffffffff1916817bffffffffffffffffffffffffffffffffffffffffffffffffffffffff191614915050612e59565b600190505b949350505050565b612e6b8383612edf565b612e786000848484612cd9565b612eb7576040517f08c379a0000000000000000000000000000000000000000000000000000000008152600401612eae90614a13565b60405180910390fd5b505050565b6000808273ffffffffffffffffffffffffffffffffffffffff163b119050919050565b600073ffffffffffffffffffffffffffffffffffffffff168273ffffffffffffffffffffffffffffffffffffffff161415612f4f576040517f08c379a0000000000000000000000000000000000000000000000000000000008152600401612f4690614dc5565b60405180910390fd5b612f5881611db3565b15612f98576040517f08c379a0000000000000000000000000000000000000000000000000000000008152600401612f8f90614e31565b60405180910390fd5b612fa460008383612ccf565b6001600360008473ffffffffffffffffffffffffffffffffffffffff1673ffffffffffffffffffffffffffffffffffffffff1681526020019081526020016000206000828254612ff491906146b0565b92505081905550816002600083815260200190815260200160002060006101000a81548173ffffffffffffffffffffffffffffffffffffffff021916908373ffffffffffffffffffffffffffffffffffffffff160217905550808273ffffffffffffffffffffffffffffffffffffffff16600073ffffffffffffffffffffffffffffffffffffffff167fddf252ad1be2c89b69c2b068fc378daa952ba7f163c4a11628f55a4df523b3ef60405160405180910390a46130b560008383612cd4565b5050565b8280546130c590613b56565b90600052602060002090601f0160209004810192826130e7576000855561312e565b82601f1061310057803560ff191683800117855561312e565b8280016001018555821561312e579182015b8281111561312d578235825591602001919060010190613112565b5b50905061313b91906131c5565b5090565b82805461314b90613b56565b90600052602060002090601f01602090048101928261316d57600085556131b4565b82601f1061318657805160ff19168380011785556131b4565b828001600101855582156131b4579182015b828111156131b3578251825591602001919060010190613198565b5b5090506131c191906131c5565b5090565b5b808211156131de5760008160009055506001016131c6565b5090565b6000604051905090565b600080fd5b600080fd5b60007fffffffff0000000000000000000000000000000000000000000000000000000082169050919050565b61322b816131f6565b811461323657600080fd5b50565b60008135905061324881613222565b92915050565b600060208284031215613264576132636131ec565b5b600061327284828501613239565b91505092915050565b60008115159050919050565b6132908161327b565b82525050565b60006020820190506132ab6000830184613287565b92915050565b600081519050919050565b600082825260208201905092915050565b60005b838110156132eb5780820151818401526020810190506132d0565b838111156132fa576000848401525b50505050565b6000601f19601f8301169050919050565b600061331c826132b1565b61332681856132bc565b93506133368185602086016132cd565b61333f81613300565b840191505092915050565b600060208201905081810360008301526133648184613311565b905092915050565b6000819050919050565b61337f8161336c565b811461338a57600080fd5b50565b60008135905061339c81613376565b92915050565b6000602082840312156133b8576133b76131ec565b5b60006133c68482850161338d565b91505092915050565b600073ffffffffffffffffffffffffffffffffffffffff82169050919050565b60006133fa826133cf565b9050919050565b61340a816133ef565b82525050565b60006020820190506134256000830184613401565b92915050565b613434816133ef565b811461343f57600080fd5b50565b6000813590506134518161342b565b92915050565b6000806040838503121561346e5761346d6131ec565b5b600061347c85828601613442565b925050602061348d8582860161338d565b9150509250929050565b600080fd5b600080fd5b600080fd5b60008083601f8401126134bc576134bb613497565b5b8235905067ffffffffffffffff8111156134d9576134d861349c565b5b6020830191508360018202830111156134f5576134f46134a1565b5b9250929050565b60008060208385031215613513576135126131ec565b5b600083013567ffffffffffffffff811115613531576135306131f1565b5b61353d858286016134a6565b92509250509250929050565b600080600060608486031215613562576135616131ec565b5b600061357086828701613442565b935050602061358186828701613442565b92505060406135928682870161338d565b9150509250925092565b600080fd5b7f4e487b7100000000000000000000000000000000000000000000000000000000600052604160045260246000fd5b6135d982613300565b810181811067ffffffffffffffff821117156135f8576135f76135a1565b5b80604052505050565b600061360b6131e2565b905061361782826135d0565b919050565b600067ffffffffffffffff821115613637576136366135a1565b5b61364082613300565b9050602081019050919050565b82818337600083830152505050565b600061366f61366a8461361c565b613601565b90508281526020810184848401111561368b5761368a61359c565b5b61369684828561364d565b509392505050565b600082601f8301126136b3576136b2613497565b5b81356136c384826020860161365c565b91505092915050565b6000602082840312156136e2576136e16131ec565b5b600082013567ffffffffffffffff811115613700576136ff6131f1565b5b61370c8482850161369e565b91505092915050565b600081519050919050565b600082825260208201905092915050565b6000819050602082019050919050565b600082825260208201905092915050565b600061375d826132b1565b6137678185613741565b93506137778185602086016132cd565b61378081613300565b840191505092915050565b60006137978383613752565b905092915050565b6000602082019050919050565b60006137b782613715565b6137c18185613720565b9350836020820285016137d385613731565b8060005b8581101561380f57848403895281516137f0858261378b565b94506137fb8361379f565b925060208a019950506001810190506137d7565b50829750879550505050505092915050565b6000602082019050818103600083015261383b81846137ac565b905092915050565b600060208284031215613859576138586131ec565b5b600061386784828501613442565b91505092915050565b6138798161336c565b82525050565b60006020820190506138946000830184613870565b92915050565b60006138a5826133cf565b9050919050565b6138b58161389a565b82525050565b60006020820190506138d060008301846138ac565b92915050565b6138df8161327b565b81146138ea57600080fd5b50565b6000813590506138fc816138d6565b92915050565b60008060408385031215613919576139186131ec565b5b600061392785828601613442565b9250506020613938858286016138ed565b9150509250929050565b600067ffffffffffffffff82111561395d5761395c6135a1565b5b61396682613300565b9050602081019050919050565b600061398661398184613942565b613601565b9050828152602081018484840111156139a2576139a161359c565b5b6139ad84828561364d565b509392505050565b600082601f8301126139ca576139c9613497565b5b81356139da848260208601613973565b91505092915050565b600080600080608085870312156139fd576139fc6131ec565b5b6000613a0b87828801613442565b9450506020613a1c87828801613442565b9350506040613a2d8782880161338d565b925050606085013567ffffffffffffffff811115613a4e57613a4d6131f1565b5b613a5a878288016139b5565b91505092959194509250565b60008060008060408587031215613a8057613a7f6131ec565b5b600085013567ffffffffffffffff811115613a9e57613a9d6131f1565b5b613aaa878288016134a6565b9450945050602085013567ffffffffffffffff811115613acd57613acc6131f1565b5b613ad9878288016134a6565b925092505092959194509250565b60008060408385031215613afe57613afd6131ec565b5b6000613b0c85828601613442565b9250506020613b1d85828601613442565b9150509250929050565b7f4e487b7100000000000000000000000000000000000000000000000000000000600052602260045260246000fd5b60006002820490506001821680613b6e57607f821691505b60208210811415613b8257613b81613b27565b5b50919050565b7f4552433732313a20617070726f76656420717565727920666f72206e6f6e657860008201527f697374656e7420746f6b656e0000000000000000000000000000000000000000602082015250565b6000613be4602c836132bc565b9150613bef82613b88565b604082019050919050565b60006020820190508181036000830152613c1381613bd7565b9050919050565b7f4552433732313a20617070726f76616c20746f2063757272656e74206f776e6560008201527f7200000000000000000000000000000000000000000000000000000000000000602082015250565b6000613c766021836132bc565b9150613c8182613c1a565b604082019050919050565b60006020820190508181036000830152613ca581613c69565b9050919050565b7f4552433732313a20617070726f76652063616c6c6572206973206e6f74206f7760008201527f6e6572206e6f7220617070726f76656420666f7220616c6c0000000000000000602082015250565b6000613d086038836132bc565b9150613d1382613cac565b604082019050919050565b60006020820190508181036000830152613d3781613cfb565b9050919050565b600081905092915050565b6000613d558385613d3e565b9350613d6283858461364d565b82840190509392505050565b6000613d7b828486613d49565b91508190509392505050565b7f4552433732313a207472616e736665722063616c6c6572206973206e6f74206f60008201527f776e6572206e6f7220617070726f766564000000000000000000000000000000602082015250565b6000613de36031836132bc565b9150613dee82613d87565b604082019050919050565b60006020820190508181036000830152613e1281613dd6565b9050919050565b600081905092915050565b50565b6000613e34600083613e19565b9150613e3f82613e24565b600082019050919050565b6000613e5582613e27565b9150819050919050565b7f4661696c656420746f207769746864726177204d617469630000000000000000600082015250565b6000613e956018836132bc565b9150613ea082613e5f565b602082019050919050565b60006020820190508181036000830152613ec481613e88565b9050919050565b7f4552433732313a206f776e657220717565727920666f72206e6f6e657869737460008201527f656e7420746f6b656e0000000000000000000000000000000000000000000000602082015250565b6000613f276029836132bc565b9150613f3282613ecb565b604082019050919050565b60006020820190508181036000830152613f5681613f1a565b9050919050565b7f4e487b7100000000000000000000000000000000000000000000000000000000600052603260045260246000fd5b7f4e487b7100000000000000000000000000000000000000000000000000000000600052601160045260246000fd5b6000613fc68261336c565b91507fffffffffffffffffffffffffffffffffffffffffffffffffffffffffffffffff821415613ff957613ff8613f8c565b5b600182019050919050565b7f4552433732313a2062616c616e636520717565727920666f7220746865207a6560008201527f726f206164647265737300000000000000000000000000000000000000000000602082015250565b6000614060602a836132bc565b915061406b82614004565b604082019050919050565b6000602082019050818103600083015261408f81614053565b9050919050565b7f45524337323155524953746f726167653a2055524920717565727920666f722060008201527f6e6f6e6578697374656e7420746f6b656e000000000000000000000000000000602082015250565b60006140f26031836132bc565b91506140fd82614096565b604082019050919050565b60006020820190508181036000830152614121816140e5565b9050919050565b6000614133826132b1565b61413d8185613d3e565b935061414d8185602086016132cd565b80840191505092915050565b60006141658285614128565b91506141718284614128565b91508190509392505050565b7f4e487b7100000000000000000000000000000000000000000000000000000000600052601260045260246000fd5b60006141b78261336c565b91506141c28361336c565b9250826141d2576141d161417d565b5b828204905092915050565b60006141e983856132bc565b93506141f683858461364d565b6141ff83613300565b840190509392505050565b600060208201905081810360008301526142258184866141dd565b90509392505050565b7f496e73756666696369656e742066756e647320666f7220646f6d61696e20726560008201527f67697374726174696f6e2e000000000000000000000000000000000000000000602082015250565b600061428a602b836132bc565b91506142958261422e565b604082019050919050565b600060208201905081810360008301526142b98161427d565b9050919050565b7f2e00000000000000000000000000000000000000000000000000000000000000600082015250565b60006142f6600183613d3e565b9150614301826142c0565b600182019050919050565b60008190508160005260206000209050919050565b6000815461432e81613b56565b6143388186613d3e565b94506001821660008114614353576001811461436457614397565b60ff19831686528186019350614397565b61436d8561430c565b60005b8381101561438f57815481890152600182019150602081019050614370565b838801955050505b50505092915050565b60006143ad828587613d49565b91506143b8826142e9565b91506143c48284614321565b9150819050949350505050565b60006143dd8286614321565b91506143e98285614128565b91506143f58284614321565b9150819050949350505050565b7f7b226e616d65223a202200000000000000000000000000000000000000000000600082015250565b6000614438600a83613d3e565b915061444382614402565b600a82019050919050565b7f222c20226465736372697074696f6e223a20224120646f6d61696e206f6e207460008201527f6865204e696e6a61206e616d652073657276696365222c2022696d616765223a60208201527f2022646174613a696d6167652f7376672b786d6c3b6261736536342c00000000604082015250565b60006144d0605c83613d3e565b91506144db8261444e565b605c82019050919050565b7f222c226c656e677468223a220000000000000000000000000000000000000000600082015250565b600061451c600c83613d3e565b9150614527826144e6565b600c82019050919050565b7f227d000000000000000000000000000000000000000000000000000000000000600082015250565b6000614568600283613d3e565b915061457382614532565b600282019050919050565b60006145898261442b565b91506145958286614128565b91506145a0826144c3565b91506145ac8285614128565b91506145b78261450f565b91506145c38284614128565b91506145ce8261455b565b9150819050949350505050565b7f646174613a6170706c69636174696f6e2f6a736f6e3b6261736536342c000000600082015250565b6000614611601d83613d3e565b915061461c826145db565b601d82019050919050565b600061463282614604565b915061463e8284614128565b915081905092915050565b600060408201905081810360008301526146638185613311565b905081810360208301526146778184613311565b90509392505050565b6000604082019050818103600083015261469a8185613311565b90506146a96020830184613401565b9392505050565b60006146bb8261336c565b91506146c68361336c565b9250827fffffffffffffffffffffffffffffffffffffffffffffffffffffffffffffffff038211156146fb576146fa613f8c565b5b828201905092915050565b7f4552433732313a206f70657261746f7220717565727920666f72206e6f6e657860008201527f697374656e7420746f6b656e0000000000000000000000000000000000000000602082015250565b6000614762602c836132bc565b915061476d82614706565b604082019050919050565b6000602082019050818103600083015261479181614755565b9050919050565b7f4552433732313a207472616e736665722066726f6d20696e636f72726563742060008201527f6f776e6572000000000000000000000000000000000000000000000000000000602082015250565b60006147f46025836132bc565b91506147ff82614798565b604082019050919050565b60006020820190508181036000830152614823816147e7565b9050919050565b7f4552433732313a207472616e7366657220746f20746865207a65726f2061646460008201527f7265737300000000000000000000000000000000000000000000000000000000602082015250565b60006148866024836132bc565b91506148918261482a565b604082019050919050565b600060208201905081810360008301526148b581614879565b9050919050565b60006148c78261336c565b91506148d28361336c565b9250828210156148e5576148e4613f8c565b5b828203905092915050565b6000606082019050818103600083015261490a8186613311565b90506149196020830185613870565b818103604083015261492b8184613311565b9050949350505050565b7f4552433732313a20617070726f766520746f2063616c6c657200000000000000600082015250565b600061496b6019836132bc565b915061497682614935565b602082019050919050565b6000602082019050818103600083015261499a8161495e565b9050919050565b7f4552433732313a207472616e7366657220746f206e6f6e20455243373231526560008201527f63656976657220696d706c656d656e7465720000000000000000000000000000602082015250565b60006149fd6032836132bc565b9150614a08826149a1565b604082019050919050565b60006020820190508181036000830152614a2c816149f0565b9050919050565b60006080820190508181036000830152614a4d8187613311565b9050614a5c6020830186613401565b8181036040830152614a6e8185613311565b90508181036060830152614a828184613311565b905095945050505050565b7f4552433732314d657461646174613a2055524920717565727920666f72206e6f60008201527f6e6578697374656e7420746f6b656e0000000000000000000000000000000000602082015250565b6000614ae9602f836132bc565b9150614af482614a8d565b604082019050919050565b60006020820190508181036000830152614b1881614adc565b9050919050565b6000614b2a8261336c565b9150614b358361336c565b925082614b4557614b4461417d565b5b828206905092915050565b60006080820190508181036000830152614b6a8187613311565b90508181036020830152614b7e8186613311565b90508181036040830152614b928185613311565b9050614ba16060830184613870565b95945050505050565b6000614bb58261336c565b9150614bc08361336c565b9250817fffffffffffffffffffffffffffffffffffffffffffffffffffffffffffffffff0483118215151615614bf957614bf8613f8c565b5b828202905092915050565b7f45524337323155524953746f726167653a2055524920736574206f66206e6f6e60008201527f6578697374656e7420746f6b656e000000000000000000000000000000000000602082015250565b6000614c60602e836132bc565b9150614c6b82614c04565b604082019050919050565b60006020820190508181036000830152614c8f81614c53565b9050919050565b600081519050919050565b600082825260208201905092915050565b6000614cbd82614c96565b614cc78185614ca1565b9350614cd78185602086016132cd565b614ce081613300565b840191505092915050565b6000608082019050614d006000830187613401565b614d0d6020830186613401565b614d1a6040830185613870565b8181036060830152614d2c8184614cb2565b905095945050505050565b600081519050614d4681613222565b92915050565b600060208284031215614d6257614d616131ec565b5b6000614d7084828501614d37565b91505092915050565b7f4552433732313a206d696e7420746f20746865207a65726f2061646472657373600082015250565b6000614daf6020836132bc565b9150614dba82614d79565b602082019050919050565b60006020820190508181036000830152614dde81614da2565b9050919050565b7f4552433732313a20746f6b656e20616c7265616479206d696e74656400000000600082015250565b6000614e1b601c836132bc565b9150614e2682614de5565b602082019050919050565b60006020820190508181036000830152614e4a81614e0e565b905091905056fe0a2d2d2d2d2d2d2d2d2d2d2d2d2d2d2d2d2d2d2d2d2d2d2d2d2d2d2d2d2d2d2d2d2d2d2d2d2d2d2d2d2d2d2d2d2d2d2d2d2d2d2d2d2d2d2d2d2573206861732073657420746865207265636f726420666f7220257320746f2025735265676973746572696e672025732e2573206f6e2074686520636f6e7472616374207769746820746f6b656e49442025642d2d2d2d2d2d2d2d2d2d2d2d2d2d2d2d2d2d2d2d2d2d2d2d2d2d2d2d2d2d2d2d2d2d2d2d2d2d2d2d2d2d2d2d2d2d2d2d2d2d2d2d2d2d2d2d0a4142434445464748494a4b4c4d4e4f505152535455565758595a6162636465666768696a6b6c6d6e6f707172737475767778797a303132333435363738392b2fa26469706673582212204a5d8937a89d6bb0afadf31030e68df818537d0c9757d3eac35def3859b4b95c64736f6c634300080a00333c73766720786d6c6e733d22687474703a2f2f7777772e77332e6f72672f323030302f737667222077696474683d2232373022206865696768743d22323730222066696c6c3d226e6f6e65223e3c706174682066696c6c3d2275726c282342292220643d224d302030683237307632373048307a222f3e3c646566733e3c66696c7465722069643d22412220636f6c6f722d696e746572706f6c6174696f6e2d66696c746572733d2273524742222066696c746572556e6974733d227573657253706163654f6e55736522206865696768743d22323730222077696474683d22323730223e3c666544726f70536861646f772064783d2230222064793d22312220737464446576696174696f6e3d22322220666c6f6f642d6f7061636974793d222e323235222077696474683d223230302522206865696768743d2232303025222f3e3c2f66696c7465723e3c2f646566733e3c7061746820643d224d37322e3836332034322e393439632d2e3636382d2e3338372d312e3432362d2e35392d322e3139372d2e3539732d312e3532392e3230342d322e3139372e35396c2d31302e30383120362e3033322d362e383520332e3933342d31302e30383120362e303332632d2e3636382e3338372d312e3432362e35392d322e3139372e3539732d312e3532392d2e3230342d322e3139372d2e35396c2d382e3031332d342e37323161342e353220342e35322030203020312d312e3538392d312e363136632d2e3338342d2e3636352d2e3539342d312e3431382d2e3630382d322e313837762d392e3331632d2e3031332d2e3737352e3138352d312e3533382e3537322d322e32303861342e323520342e323520302030203120312e3632352d312e3539356c372e3838342d342e3539632e3636382d2e33383720312e3432362d2e353920322e3139372d2e353973312e3532392e32303420322e3139372e35396c372e38383420342e353961342e353220342e353220302030203120312e35383920312e363136632e3338342e3636352e35393420312e3431382e36303820322e31383776362e3033326c362e38352d342e303635762d362e303332632e3031332d2e3737352d2e3138352d312e3533382d2e3537322d322e32303861342e323520342e32352030203020302d312e3632352d312e3539354c34312e3435362032342e3539632d2e3636382d2e3338372d312e3432362d2e35392d322e3139372d2e3539732d312e3532392e3230342d322e3139372e35396c2d31342e38363420382e36353561342e323520342e32352030203020302d312e36323520312e353935632d2e3338372e36372d2e35383520312e3433342d2e35373220322e3230387631372e343431632d2e3031332e3737352e31383520312e3533382e35373220322e32303861342e323520342e323520302030203020312e36323520312e3539356c31342e38363420382e363535632e3636382e33383720312e3432362e353920322e3139372e353973312e3532392d2e32303420322e3139372d2e35396c31302e3038312d352e39303120362e38352d342e3036352031302e3038312d352e393031632e3636382d2e33383720312e3432362d2e353920322e3139372d2e353973312e3532392e32303420322e3139372e35396c372e38383420342e353961342e353220342e353220302030203120312e35383920312e363136632e3338342e3636352e35393420312e3431382e36303820322e31383776392e333131632e3031332e3737352d2e31383520312e3533382d2e35373220322e32303861342e323520342e32352030203020312d312e36323520312e3539356c2d372e38383420342e373231632d2e3636382e3338372d312e3432362e35392d322e3139372e3539732d312e3532392d2e3230342d322e3139372d2e35396c2d372e3838342d342e353961342e353220342e35322030203020312d312e3538392d312e363136632d2e3338352d2e3636352d2e3539342d312e3431382d2e3630382d322e313837762d362e3033326c2d362e383520342e30363576362e303332632d2e3031332e3737352e31383520312e3533382e35373220322e32303861342e323520342e323520302030203020312e36323520312e3539356c31342e38363420382e363535632e3636382e33383720312e3432362e353920322e3139372e353973312e3532392d2e32303420322e3139372d2e35396c31342e3836342d382e363535632e3635372d2e33393420312e3230342d2e393520312e3538392d312e363136732e3539342d312e3431382e3630392d322e3138375635352e353338632e3031332d2e3737352d2e3138352d312e3533382d2e3537322d322e32303861342e323520342e32352030203020302d312e3632352d312e3539356c2d31342e3939332d382e3738367a222066696c6c3d2223666666222f3e3c646566733e3c6c696e6561724772616469656e742069643d2242222078313d2230222079313d2230222078323d22323730222079323d2232373022206772616469656e74556e6974733d227573657253706163654f6e557365223e3c73746f702073746f702d636f6c6f723d2223636235656565222f3e3c73746f70206f66667365743d2231222073746f702d636f6c6f723d2223306364376534222073746f702d6f7061636974793d222e3939222f3e3c2f6c696e6561724772616469656e743e3c2f646566733e3c7465787420783d2233322e352220793d223233312220666f6e742d73697a653d223237222066696c6c3d2223666666222066696c7465723d2275726c282341292220666f6e742d66616d696c793d22506c7573204a616b617274612053616e732c44656a6156752053616e732c4e6f746f20436f6c6f7220456d6f6a692c4170706c6520436f6c6f7220456d6f6a692c73616e732d73657269662220666f6e742d7765696768743d22626f6c64223e",
  "linkReferences": {},
  "deployedLinkReferences": {}
}